Component: Arm Compiler for Embedded 6.18 Tool: armlink [5e4cc100]

==============================================================================

Section Cross References

    startup_stm32g031xx.o(RESET) refers to startup_stm32g031xx.o(STACK) for __initial_sp
    startup_stm32g031xx.o(RESET) refers to startup_stm32g031xx.o(.text) for Reset_Handler
    startup_stm32g031xx.o(RESET) refers to stm32g0xx_it.o(.text.NMI_Handler) for NMI_Handler
    startup_stm32g031xx.o(RESET) refers to stm32g0xx_it.o(.text.HardFault_Handler) for HardFault_Handler
    startup_stm32g031xx.o(RESET) refers to stm32g0xx_it.o(.text.SVC_Handler) for SVC_Handler
    startup_stm32g031xx.o(RESET) refers to stm32g0xx_it.o(.text.PendSV_Handler) for PendSV_Handler
    startup_stm32g031xx.o(RESET) refers to stm32g0xx_it.o(.text.SysTick_Handler) for SysTick_Handler
    startup_stm32g031xx.o(RESET) refers to stm32g0xx_it.o(.text.EXTI4_15_IRQHandler) for EXTI4_15_IRQHandler
    startup_stm32g031xx.o(RESET) refers to stm32g0xx_it.o(.text.TIM1_BRK_UP_TRG_COM_IRQHandler) for TIM1_BRK_UP_TRG_COM_IRQHandler
    startup_stm32g031xx.o(RESET) refers to stm32g0xx_it.o(.text.TIM1_CC_IRQHandler) for TIM1_CC_IRQHandler
    startup_stm32g031xx.o(RESET) refers to stm32g0xx_it.o(.text.TIM16_IRQHandler) for TIM16_IRQHandler
    startup_stm32g031xx.o(RESET) refers to stm32g0xx_it.o(.text.USART2_IRQHandler) for USART2_IRQHandler
    startup_stm32g031xx.o(.text) refers to system_stm32g0xx.o(.text.SystemInit) for SystemInit
    startup_stm32g031xx.o(.text) refers to entry.o(.ARM.Collect$$$$00000000) for __main
    main.o(.text.main) refers to stm32g0xx_hal.o(.text.HAL_Init) for HAL_Init
    main.o(.text.main) refers to main.o(.text.SystemClock_Config) for SystemClock_Config
    main.o(.text.main) refers to stm32g0xx_hal_gpio.o(.text.HAL_GPIO_WritePin) for HAL_GPIO_WritePin
    main.o(.text.main) refers to stm32g0xx_hal_gpio.o(.text.HAL_GPIO_Init) for HAL_GPIO_Init
==============================================================================

Removing Unused input sections from the image.

    Removing startup_stm32g031xx.o(HEAP), (512 bytes).
    Removing main.o(.text), (0 bytes).
    Removing main.o(.ARM.exidx.text.main), (8 bytes).
    Removing main.o(.ARM.exidx.text.SystemClock_Config), (8 bytes).
    Removing main.o(.ARM.exidx.text.initial_setting), (8 bytes).
    Removing main.o(.text.Error_Handler), (8 bytes).
    Removing main.o(.ARM.exidx.text.Error_Handler), (8 bytes).
    Removing main.o(.text.delay_us), (40 bytes).
    Removing main.o(.ARM.exidx.text.delay_us), (8 bytes).
    Removing main.o(.text.set_cmd_1), (20 bytes).
    Removing main.o(.ARM.exidx.text.set_cmd_1), (8 bytes).
    Removing main.o(.ARM.exidx.text.reception), (8 bytes).
    Removing main.o(.text.set_cmd_2), (28 bytes).
    Removing main.o(.ARM.exidx.text.set_cmd_2), (8 bytes).
    Removing main.o(.text.set_cmd_3), (24 bytes).
    Removing main.o(.ARM.exidx.text.set_cmd_3), (8 bytes).
    Removing main.o(.text.set_cmd_4), (36 bytes).
    Removing main.o(.ARM.exidx.text.set_cmd_4), (8 bytes).
==============================================================================

Image Symbol Table

    Local Symbols

    Symbol Name                              Value     Ov Type        Size  Object(Section)

    ../clib/division.s                       0x00000000   Number         0  aeabi_sdivfast.o ABSOLUTE
    ../clib/division.s                       0x00000000   Number         0  aeabi_sdivfast_div0.o ABSOLUTE
    ../clib/microlib/division.c              0x00000000   Number         0  uidiv.o ABSOLUTE
    ../clib/microlib/division.c              0x00000000   Number         0  uldiv.o ABSOLUTE
    ../clib/microlib/division.c              0x00000000   Number         0  uidiv_div0.o ABSOLUTE
    ../clib/microlib/division.c              0x00000000   Number         0  idiv_div0.o ABSOLUTE
    ../clib/microlib/division.c              0x00000000   Number         0  idiv0.o ABSOLUTE
    ../clib/microlib/init/entry.s            0x00000000   Number         0  entry.o ABSOLUTE
    ../clib/microlib/init/entry.s            0x00000000   Number         0  entry2.o ABSOLUTE
    ../clib/microlib/init/entry.s            0x00000000   Number         0  entry5.o ABSOLUTE
    ../clib/microlib/init/entry.s            0x00000000   Number         0  entry7a.o ABSOLUTE
    ../clib/microlib/init/entry.s            0x00000000   Number         0  entry7b.o ABSOLUTE
    ../clib/microlib/init/entry.s            0x00000000   Number         0  entry8a.o ABSOLUTE
    ../clib/microlib/init/entry.s            0x00000000   Number         0  entry8b.o ABSOLUTE
    ../clib/microlib/init/entry.s            0x00000000   Number         0  entry9a.o ABSOLUTE
    ../clib/microlib/init/entry.s            0x00000000   Number         0  entry9b.o ABSOLUTE
    ../clib/microlib/init/entry.s            0x00000000   Number         0  entry10a.o ABSOLUTE
    ../clib/microlib/init/entry.s            0x00000000   Number         0  entry10b.o ABSOLUTE
    ../clib/microlib/init/entry.s            0x00000000   Number         0  entry11a.o ABSOLUTE
    ../clib/microlib/init/entry.s            0x00000000   Number         0  entry11b.o ABSOLUTE
    ../clib/microlib/longlong.c              0x00000000   Number         0  llshl.o ABSOLUTE
    ../clib/microlib/longlong.c              0x00000000   Number         0  llushr.o ABSOLUTE
    ../clib/microlib/longlong.c              0x00000000   Number         0  llsshr.o ABSOLUTE
    ../clib/microlib/printf/printf.c         0x00000000   Number         0  printfb.o ABSOLUTE
    ../clib/microlib/printf/printf.c         0x00000000   Number         0  printf0.o ABSOLUTE
    ../clib/microlib/printf/printf.c         0x00000000   Number         0  printf1.o ABSOLUTE
    ../clib/microlib/printf/printf.c         0x00000000   Number         0  printf2.o ABSOLUTE
    ../clib/microlib/printf/printf.c         0x00000000   Number         0  printf3.o ABSOLUTE
    ../clib/microlib/printf/printf.c         0x00000000   Number         0  printf4.o ABSOLUTE
    ../clib/microlib/printf/printf.c         0x00000000   Number         0  printf5.o ABSOLUTE
    ../clib/microlib/printf/printf.c         0x00000000   Number         0  printf6.o ABSOLUTE
    ../clib/microlib/printf/printf.c         0x00000000   Number         0  printf7.o ABSOLUTE
    ../clib/microlib/printf/printf.c         0x00000000   Number         0  printf8.o ABSOLUTE
    ../clib/microlib/printf/printf.c         0x00000000   Number         0  printfa.o ABSOLUTE
    ../clib/microlib/printf/stubs.s          0x00000000   Number         0  printfstubs.o ABSOLUTE
    ../clib/microlib/stdio/fputc.c           0x00000000   Number         0  fputc.o ABSOLUTE
    ../clib/microlib/stdio/fputc.c           0x00000000   Number         0  fputc_h.o ABSOLUTE
    ../clib/microlib/stdio/semi.s            0x00000000   Number         0  semi.o ABSOLUTE
    ../clib/microlib/stdio/streams.c         0x00000000   Number         0  stdout.o ABSOLUTE
    ../clib/microlib/string/memset.c         0x00000000   Number         0  memseta.o ABSOLUTE
    ../clib/microlib/stubs.s                 0x00000000   Number         0  iusefp.o ABSOLUTE
    ../clib/microlib/stubs.s                 0x00000000   Number         0  iusesemip.o ABSOLUTE
    ../fplib/microlib/fpadd.c                0x00000000   Number         0  dadd.o ABSOLUTE
    ../fplib/microlib/fpdiv.c                0x00000000   Number         0  ddiv.o ABSOLUTE
    ../fplib/microlib/fpepilogue.c           0x00000000   Number         0  depilogue.o ABSOLUTE
    ../fplib/microlib/fpfix.c                0x00000000   Number         0  dfixul.o ABSOLUTE
    ../fplib/microlib/fpmul.c                0x00000000   Number         0  dmul.o ABSOLUTE
    cdrcmple.s                               0x00000000   Number         0  cdrcmple.o ABSOLUTE
    dc.s                                     0x00000000   Number         0  dc.o ABSOLUTE
    handlers.s                               0x00000000   Number         0  handlers.o ABSOLUTE
    init.s                                   0x00000000   Number         0  init.o ABSOLUTE
    main.c                                   0x00000000   Number         0  main.o ABSOLUTE
    startup_stm32g031xx.s                    0x00000000   Number         0  startup_stm32g031xx.o ABSOLUTE
    stm32g0xx_hal.c                          0x00000000   Number         0  stm32g0xx_hal.o ABSOLUTE
    stm32g0xx_hal_cortex.c                   0x00000000   Number         0  stm32g0xx_hal_cortex.o ABSOLUTE
    stm32g0xx_hal_dma.c                      0x00000000   Number         0  stm32g0xx_hal_dma.o ABSOLUTE
    stm32g0xx_hal_dma_ex.c                   0x00000000   Number         0  stm32g0xx_hal_dma_ex.o ABSOLUTE
    stm32g0xx_hal_exti.c                     0x00000000   Number         0  stm32g0xx_hal_exti.o ABSOLUTE
    stm32g0xx_hal_flash.c                    0x00000000   Number         0  stm32g0xx_hal_flash.o ABSOLUTE
    stm32g0xx_hal_flash_ex.c                 0x00000000   Number         0  stm32g0xx_hal_flash_ex.o ABSOLUTE
    stm32g0xx_hal_gpio.c                     0x00000000   Number         0  stm32g0xx_hal_gpio.o ABSOLUTE
    stm32g0xx_hal_msp.c                      0x00000000   Number         0  stm32g0xx_hal_msp.o ABSOLUTE
    stm32g0xx_hal_pwr.c                      0x00000000   Number         0  stm32g0xx_hal_pwr.o ABSOLUTE
    stm32g0xx_hal_pwr_ex.c                   0x00000000   Number         0  stm32g0xx_hal_pwr_ex.o ABSOLUTE
    stm32g0xx_hal_rcc.c                      0x00000000   Number         0  stm32g0xx_hal_rcc.o ABSOLUTE
    stm32g0xx_hal_rcc_ex.c                   0x00000000   Number         0  stm32g0xx_hal_rcc_ex.o ABSOLUTE
    stm32g0xx_hal_rtc.c                      0x00000000   Number         0  stm32g0xx_hal_rtc.o ABSOLUTE
    stm32g0xx_hal_rtc_ex.c                   0x00000000   Number         0  stm32g0xx_hal_rtc_ex.o ABSOLUTE
    stm32g0xx_hal_tim.c                      0x00000000   Number         0  stm32g0xx_hal_tim.o ABSOLUTE
    stm32g0xx_hal_tim_ex.c                   0x00000000   Number         0  stm32g0xx_hal_tim_ex.o ABSOLUTE
    stm32g0xx_hal_uart.c                     0x00000000   Number         0  stm32g0xx_hal_uart.o ABSOLUTE
    stm32g0xx_hal_uart_ex.c                  0x00000000   Number         0  stm32g0xx_hal_uart_ex.o ABSOLUTE
    stm32g0xx_it.c                           0x00000000   Number         0  stm32g0xx_it.o ABSOLUTE
    stm32g0xx_ll_dma.c                       0x00000000   Number         0  stm32g0xx_ll_dma.o ABSOLUTE
    stm32g0xx_ll_rcc.c                       0x00000000   Number         0  stm32g0xx_ll_rcc.o ABSOLUTE
    system_stm32g0xx.c                       0x00000000   Number         0  system_stm32g0xx.o ABSOLUTE
    RESET                                    0x08000000   Section      192  startup_stm32g031xx.o(RESET)
    .ARM.Collect$$$$00000000                 0x080000c0   Section        0  entry.o(.ARM.Collect$$$$00000000)
    .ARM.Collect$$$$00000001                 0x080000c0   Section        4  entry2.o(.ARM.Collect$$$$00000001)
    .ARM.Collect$$$$00000004                 0x080000c4   Section        4  entry5.o(.ARM.Collect$$$$00000004)
    .ARM.Collect$$$$00000008                 0x080000c8   Section        0  entry7b.o(.ARM.Collect$$$$00000008)
    .ARM.Collect$$$$0000000A                 0x080000c8   Section        0  entry8b.o(.ARM.Collect$$$$0000000A)
    .ARM.Collect$$$$0000000B                 0x080000c8   Section        8  entry9a.o(.ARM.Collect$$$$0000000B)
    __lit__00000000                          0x080000d0   Data           4  entry2.o(.ARM.Collect$$$$00002712)
    .ARM.Collect$$$$0000000D                 0x080000d0   Section        0  entry10a.o(.ARM.Collect$$$$0000000D)
    .ARM.Collect$$$$0000000F                 0x080000d0   Section        0  entry11a.o(.ARM.Collect$$$$0000000F)
    .ARM.Collect$$$$00002712                 0x080000d0   Section        4  entry2.o(.ARM.Collect$$$$00002712)
    .text                                    0x080000d4   Section       28  startup_stm32g031xx.o(.text)
    .text                                    0x080000f0   Section        0  uldiv.o(.text)
    .text                                    0x08000150   Section        0  memseta.o(.text)
    .text                                    0x08000174   Section        0  uidiv_div0.o(.text)
    .text                                    0x080001b2   Section        0  llshl.o(.text)
    .text                                    0x080001d2   Section        0  llushr.o(.text)
    .text                                    0x080001f4   Section       36  init.o(.text)
    [Anonymous Symbol]                       0x08000218   Section        0  stm32g0xx_it.o(.text.EXTI4_15_IRQHandler)
    [Anonymous Symbol]                       0x08000224   Section        0  stm32g0xx_hal_dma.o(.text.HAL_DMA_Abort)
    [Anonymous Symbol]                       0x08000294   Section        0  stm32g0xx_hal_dma.o(.text.HAL_DMA_Abort_IT)
    __arm_cp.5_0                             0x08000304   Number         4  stm32g0xx_hal_dma.o(.text.HAL_DMA_Abort_IT)
    __arm_cp.5_1                             0x08000308   Number         4  stm32g0xx_hal_dma.o(.text.HAL_DMA_Abort_IT)
    [Anonymous Symbol]                       0x0800030c   Section        0  stm32g0xx_hal.o(.text.HAL_Delay)
    [Anonymous Symbol]                       0x0800032c   Section        0  main.o(.text.HAL_GPIO_EXTI_Falling_Callback)
    __arm_cp.19_0                            0x080003a8   Number         4  main.o(.text.HAL_GPIO_EXTI_Falling_Callback)
    __arm_cp.19_1                            0x080003ac   Number         4  main.o(.text.HAL_GPIO_EXTI_Falling_Callback)
    __arm_cp.19_2                            0x080003b0   Number         4  main.o(.text.HAL_GPIO_EXTI_Falling_Callback)
    __arm_cp.19_3                            0x080003b4   Number         4  main.o(.text.HAL_GPIO_EXTI_Falling_Callback)
    __arm_cp.19_4                            0x080003b8   Number         4  main.o(.text.HAL_GPIO_EXTI_Falling_Callback)
    [Anonymous Symbol]                       0x080003bc   Section        0  stm32g0xx_hal_gpio.o(.text.HAL_GPIO_EXTI_IRQHandler)
    __arm_cp.6_0                             0x080003e0   Number         4  stm32g0xx_hal_gpio.o(.text.HAL_GPIO_EXTI_IRQHandler)
    [Anonymous Symbol]                       0x080003e4   Section        0  stm32g0xx_hal_gpio.o(.text.HAL_GPIO_EXTI_Rising_Callback)
    [Anonymous Symbol]                       0x080003e8   Section        0  stm32g0xx_hal_gpio.o(.text.HAL_GPIO_Init)
    __arm_cp.0_0                             0x08000584   Number         4  stm32g0xx_hal_gpio.o(.text.HAL_GPIO_Init)
    __arm_cp.0_1                             0x08000588   Number         4  stm32g0xx_hal_gpio.o(.text.HAL_GPIO_Init)
    __arm_cp.0_2                             0x0800058c   Number         4  stm32g0xx_hal_gpio.o(.text.HAL_GPIO_Init)
    __arm_cp.0_3                             0x08000590   Number         4  stm32g0xx_hal_gpio.o(.text.HAL_GPIO_Init)
    __arm_cp.0_4                             0x08000594   Number         4  stm32g0xx_hal_gpio.o(.text.HAL_GPIO_Init)
    __arm_cp.0_5                             0x08000598   Number         4  stm32g0xx_hal_gpio.o(.text.HAL_GPIO_Init)
    [Anonymous Symbol]                       0x0800059c   Section        0  stm32g0xx_hal_gpio.o(.text.HAL_GPIO_TogglePin)
    [Anonymous Symbol]                       0x080005ac   Section        0  stm32g0xx_hal_gpio.o(.text.HAL_GPIO_WritePin)
    [Anonymous Symbol]                       0x080005bc   Section        0  stm32g0xx_hal.o(.text.HAL_GetTick)
    [Anonymous Symbol]                       0x080005c4   Section        0  stm32g0xx_hal.o(.text.HAL_IncTick)
    __arm_cp.5_1                             0x080005d4   Number         4  stm32g0xx_hal.o(.text.HAL_IncTick)
    [Anonymous Symbol]                       0x080005d8   Section        0  stm32g0xx_hal.o(.text.HAL_Init)
    __arm_cp.0_0                             0x08000600   Number         4  stm32g0xx_hal.o(.text.HAL_Init)
    [Anonymous Symbol]                       0x08000604   Section        0  stm32g0xx_hal.o(.text.HAL_InitTick)
    __arm_cp.1_0                             0x08000644   Number         4  stm32g0xx_hal.o(.text.HAL_InitTick)
    [Anonymous Symbol]                       0x08000648   Section        0  stm32g0xx_hal_msp.o(.text.HAL_MspInit)
    __arm_cp.0_0                             0x08000670   Number         4  stm32g0xx_hal_msp.o(.text.HAL_MspInit)
    [Anonymous Symbol]                       0x08000674   Section        0  stm32g0xx_hal_cortex.o(.text.HAL_NVIC_EnableIRQ)
    __arm_cp.1_0                             0x08000688   Number         4  stm32g0xx_hal_cortex.o(.text.HAL_NVIC_EnableIRQ)
    [Anonymous Symbol]                       0x0800068c   Section        0  stm32g0xx_hal_cortex.o(.text.HAL_NVIC_SetPriority)
    __arm_cp.0_0                             0x080006c4   Number         4  stm32g0xx_hal_cortex.o(.text.HAL_NVIC_SetPriority)
    __arm_cp.0_1                             0x080006c8   Number         4  stm32g0xx_hal_cortex.o(.text.HAL_NVIC_SetPriority)
    [Anonymous Symbol]                       0x080006cc   Section        0  stm32g0xx_hal_pwr_ex.o(.text.HAL_PWREx_ControlVoltageScaling)
    __arm_cp.20_0                            0x08000740   Number         4  stm32g0xx_hal_pwr_ex.o(.text.HAL_PWREx_ControlVoltageScaling)
    __arm_cp.20_1                            0x08000744   Number         4  stm32g0xx_hal_pwr_ex.o(.text.HAL_PWREx_ControlVoltageScaling)
    __arm_cp.20_2                            0x08000748   Number         4  stm32g0xx_hal_pwr_ex.o(.text.HAL_PWREx_ControlVoltageScaling)
    [Anonymous Symbol]                       0x0800074c   Section        0  stm32g0xx_hal_pwr.o(.text.HAL_PWR_EnableBkUpAccess)
    [Anonymous Symbol]                       0x0800075c   Section        0  stm32g0xx_hal_rcc_ex.o(.text.HAL_RCCEx_PeriphCLKConfig)
    __arm_cp.0_0                             0x08000910   Number         4  stm32g0xx_hal_rcc_ex.o(.text.HAL_RCCEx_PeriphCLKConfig)
    __arm_cp.0_1                             0x08000914   Number         4  stm32g0xx_hal_rcc_ex.o(.text.HAL_RCCEx_PeriphCLKConfig)
    __arm_cp.0_2                             0x08000918   Number         4  stm32g0xx_hal_rcc_ex.o(.text.HAL_RCCEx_PeriphCLKConfig)
    __arm_cp.0_4                             0x0800091c   Number         4  stm32g0xx_hal_rcc_ex.o(.text.HAL_RCCEx_PeriphCLKConfig)
    [Anonymous Symbol]                       0x08000920   Section        0  stm32g0xx_hal_rcc.o(.text.HAL_RCC_ClockConfig)
    __arm_cp.2_0                             0x08000b08   Number         4  stm32g0xx_hal_rcc.o(.text.HAL_RCC_ClockConfig)
    __arm_cp.2_1                             0x08000b0c   Number         4  stm32g0xx_hal_rcc.o(.text.HAL_RCC_ClockConfig)
    __arm_cp.2_5                             0x08000b10   Number         4  stm32g0xx_hal_rcc.o(.text.HAL_RCC_ClockConfig)
    __arm_cp.2_7                             0x08000b14   Number         4  stm32g0xx_hal_rcc.o(.text.HAL_RCC_ClockConfig)
    [Anonymous Symbol]                       0x08000b18   Section        0  stm32g0xx_hal_rcc.o(.text.HAL_RCC_GetPCLK1Freq)
    __arm_cp.6_0                             0x08000b34   Number         4  stm32g0xx_hal_rcc.o(.text.HAL_RCC_GetPCLK1Freq)
    __arm_cp.6_2                             0x08000b38   Number         4  stm32g0xx_hal_rcc.o(.text.HAL_RCC_GetPCLK1Freq)
    [Anonymous Symbol]                       0x08000b3c   Section        0  stm32g0xx_hal_rcc.o(.text.HAL_RCC_GetSysClockFreq)
    __arm_cp.3_0                             0x08000bb8   Number         4  stm32g0xx_hal_rcc.o(.text.HAL_RCC_GetSysClockFreq)
    __arm_cp.3_1                             0x08000bbc   Number         4  stm32g0xx_hal_rcc.o(.text.HAL_RCC_GetSysClockFreq)
    __arm_cp.3_2                             0x08000bc0   Number         4  stm32g0xx_hal_rcc.o(.text.HAL_RCC_GetSysClockFreq)
    [Anonymous Symbol]                       0x08000bc4   Section        0  stm32g0xx_hal_rcc.o(.text.HAL_RCC_OscConfig)
    __arm_cp.1_9                             0x08000fac   Number         4  stm32g0xx_hal_rcc.o(.text.HAL_RCC_OscConfig)
    __arm_cp.1_1                             0x08001010   Number         4  stm32g0xx_hal_rcc.o(.text.HAL_RCC_OscConfig)
    __arm_cp.1_2                             0x08001014   Number         4  stm32g0xx_hal_rcc.o(.text.HAL_RCC_OscConfig)
    __arm_cp.1_3                             0x08001018   Number         4  stm32g0xx_hal_rcc.o(.text.HAL_RCC_OscConfig)
    __arm_cp.1_4                             0x0800101c   Number         4  stm32g0xx_hal_rcc.o(.text.HAL_RCC_OscConfig)
    __arm_cp.1_5                             0x08001020   Number         4  stm32g0xx_hal_rcc.o(.text.HAL_RCC_OscConfig)
    __arm_cp.1_6                             0x08001024   Number         4  stm32g0xx_hal_rcc.o(.text.HAL_RCC_OscConfig)
    __arm_cp.1_7                             0x08001028   Number         4  stm32g0xx_hal_rcc.o(.text.HAL_RCC_OscConfig)
    [Anonymous Symbol]                       0x0800102c   Section        0  stm32g0xx_hal_rtc_ex.o(.text.HAL_RTCEx_BKUPWrite)
    [Anonymous Symbol]                       0x0800103e   Section        0  stm32g0xx_hal_rtc.o(.text.HAL_RTC_GetDate)
    [Anonymous Symbol]                       0x0800108c   Section        0  stm32g0xx_hal_rtc.o(.text.HAL_RTC_GetTime)
    __arm_cp.8_0                             0x080010f4   Number         4  stm32g0xx_hal_rtc.o(.text.HAL_RTC_GetTime)
    [Anonymous Symbol]                       0x080010f8   Section        0  stm32g0xx_hal_rtc.o(.text.HAL_RTC_Init)
    __arm_cp.0_0                             0x080011c0   Number         4  stm32g0xx_hal_rtc.o(.text.HAL_RTC_Init)
    [Anonymous Symbol]                       0x080011c4   Section        0  stm32g0xx_hal_msp.o(.text.HAL_RTC_MspInit)
    __arm_cp.1_0                             0x080011f4   Number         4  stm32g0xx_hal_msp.o(.text.HAL_RTC_MspInit)
    __arm_cp.1_1                             0x080011f8   Number         4  stm32g0xx_hal_msp.o(.text.HAL_RTC_MspInit)
    [Anonymous Symbol]                       0x080011fc   Section        0  stm32g0xx_hal_rtc.o(.text.HAL_RTC_SetDate)
    [Anonymous Symbol]                       0x0800132c   Section        0  stm32g0xx_hal_rtc.o(.text.HAL_RTC_SetTime)
    __arm_cp.6_0                             0x08001480   Number         4  stm32g0xx_hal_rtc.o(.text.HAL_RTC_SetTime)
    [Anonymous Symbol]                       0x08001484   Section        0  stm32g0xx_hal_cortex.o(.text.HAL_SYSTICK_Config)
    __arm_cp.4_0                             0x080014ac   Number         4  stm32g0xx_hal_cortex.o(.text.HAL_SYSTICK_Config)
    __arm_cp.4_1                             0x080014b0   Number         4  stm32g0xx_hal_cortex.o(.text.HAL_SYSTICK_Config)
    __arm_cp.4_2                             0x080014b4   Number         4  stm32g0xx_hal_cortex.o(.text.HAL_SYSTICK_Config)
    [Anonymous Symbol]                       0x080014b8   Section        0  stm32g0xx_hal_tim_ex.o(.text.HAL_TIMEx_Break2Callback)
    [Anonymous Symbol]                       0x080014ba   Section        0  stm32g0xx_hal_tim_ex.o(.text.HAL_TIMEx_BreakCallback)
    [Anonymous Symbol]                       0x080014bc   Section        0  stm32g0xx_hal_tim_ex.o(.text.HAL_TIMEx_CommutCallback)
    [Anonymous Symbol]                       0x080014c0   Section        0  stm32g0xx_hal_tim_ex.o(.text.HAL_TIMEx_MasterConfigSynchronization)
    [Anonymous Symbol]                       0x08001520   Section        0  stm32g0xx_hal_tim.o(.text.HAL_TIM_Base_Init)
    __arm_cp.0_2                             0x080015ec   Number         4  stm32g0xx_hal_tim.o(.text.HAL_TIM_Base_Init)
    __arm_cp.0_3                             0x080015f0   Number         4  stm32g0xx_hal_tim.o(.text.HAL_TIM_Base_Init)
    __arm_cp.0_5                             0x080015f4   Number         4  stm32g0xx_hal_tim.o(.text.HAL_TIM_Base_Init)
    [Anonymous Symbol]                       0x080015f8   Section        0  stm32g0xx_hal_msp.o(.text.HAL_TIM_Base_MspInit)
    __arm_cp.3_0                             0x0800168c   Number         4  stm32g0xx_hal_msp.o(.text.HAL_TIM_Base_MspInit)
    __arm_cp.3_2                             0x08001690   Number         4  stm32g0xx_hal_msp.o(.text.HAL_TIM_Base_MspInit)
    [Anonymous Symbol]                       0x08001694   Section        0  stm32g0xx_hal_tim.o(.text.HAL_TIM_Base_Start)
    [Anonymous Symbol]                       0x080016e0   Section        0  stm32g0xx_hal_tim.o(.text.HAL_TIM_Base_Start_IT)
    __arm_cp.7_0                             0x08001730   Number         4  stm32g0xx_hal_tim.o(.text.HAL_TIM_Base_Start_IT)
    __arm_cp.7_1                             0x08001734   Number         4  stm32g0xx_hal_tim.o(.text.HAL_TIM_Base_Start_IT)
    __arm_cp.7_2                             0x08001738   Number         4  stm32g0xx_hal_tim.o(.text.HAL_TIM_Base_Start_IT)
    [Anonymous Symbol]                       0x0800173c   Section        0  stm32g0xx_hal_tim.o(.text.HAL_TIM_ConfigClockSource)
    __arm_cp.90_0                            0x08001874   Number         4  stm32g0xx_hal_tim.o(.text.HAL_TIM_ConfigClockSource)
    __arm_cp.90_1                            0x08001878   Number         4  stm32g0xx_hal_tim.o(.text.HAL_TIM_ConfigClockSource)
    [Anonymous Symbol]                       0x0800187c   Section        0  stm32g0xx_hal_tim.o(.text.HAL_TIM_IC_CaptureCallback)
    [Anonymous Symbol]                       0x08001880   Section        0  stm32g0xx_hal_tim.o(.text.HAL_TIM_IRQHandler)
    __arm_cp.67_0                            0x080019e0   Number         4  stm32g0xx_hal_tim.o(.text.HAL_TIM_IRQHandler)
    [Anonymous Symbol]                       0x080019e4   Section        0  stm32g0xx_hal_tim.o(.text.HAL_TIM_OC_DelayElapsedCallback)
    [Anonymous Symbol]                       0x080019e6   Section        0  stm32g0xx_hal_tim.o(.text.HAL_TIM_PWM_PulseFinishedCallback)
    [Anonymous Symbol]                       0x080019e8   Section        0  main.o(.text.HAL_TIM_PeriodElapsedCallback)
    __arm_cp.18_0                            0x08001a04   Number         4  main.o(.text.HAL_TIM_PeriodElapsedCallback)
    [Anonymous Symbol]                       0x08001a08   Section        0  stm32g0xx_hal_tim.o(.text.HAL_TIM_TriggerCallback)
    [Anonymous Symbol]                       0x08001a0a   Section        0  stm32g0xx_hal_uart.o(.text.HAL_UARTEx_RxEventCallback)
    [Anonymous Symbol]                       0x08001a0c   Section        0  stm32g0xx_hal_uart_ex.o(.text.HAL_UARTEx_RxFifoFullCallback)
    [Anonymous Symbol]                       0x08001a0e   Section        0  stm32g0xx_hal_uart_ex.o(.text.HAL_UARTEx_TxFifoEmptyCallback)
    [Anonymous Symbol]                       0x08001a10   Section        0  stm32g0xx_hal_uart_ex.o(.text.HAL_UARTEx_WakeupCallback)
    [Anonymous Symbol]                       0x08001a12   Section        0  stm32g0xx_hal_uart.o(.text.HAL_UART_ErrorCallback)
    [Anonymous Symbol]                       0x08001a14   Section        0  stm32g0xx_hal_uart.o(.text.HAL_UART_IRQHandler)
    __arm_cp.42_0                            0x08001dbc   Number         4  stm32g0xx_hal_uart.o(.text.HAL_UART_IRQHandler)
    __arm_cp.42_1                            0x08001dc0   Number         4  stm32g0xx_hal_uart.o(.text.HAL_UART_IRQHandler)
    __arm_cp.42_2                            0x08001dc4   Number         4  stm32g0xx_hal_uart.o(.text.HAL_UART_IRQHandler)
    __arm_cp.42_3                            0x08001dc8   Number         4  stm32g0xx_hal_uart.o(.text.HAL_UART_IRQHandler)
    [Anonymous Symbol]                       0x08001dcc   Section        0  stm32g0xx_hal_uart.o(.text.HAL_UART_Init)
    [Anonymous Symbol]                       0x08001e38   Section        0  stm32g0xx_hal_msp.o(.text.HAL_UART_MspInit)
    __arm_cp.5_0                             0x08001e9c   Number         4  stm32g0xx_hal_msp.o(.text.HAL_UART_MspInit)
    __arm_cp.5_1                             0x08001ea0   Number         4  stm32g0xx_hal_msp.o(.text.HAL_UART_MspInit)
    [Anonymous Symbol]                       0x08001ea4   Section        0  stm32g0xx_hal_uart.o(.text.HAL_UART_Receive_IT)
    [Anonymous Symbol]                       0x08001ef0   Section        0  main.o(.text.HAL_UART_RxCpltCallback)
    __arm_cp.20_0                            0x08001f88   Number         4  main.o(.text.HAL_UART_RxCpltCallback)
    __arm_cp.20_1                            0x08001f8c   Number         4  main.o(.text.HAL_UART_RxCpltCallback)
    __arm_cp.20_4                            0x08001fc8   Number         4  main.o(.text.HAL_UART_RxCpltCallback)
    [Anonymous Symbol]                       0x08001fcc   Section        0  stm32g0xx_hal_uart.o(.text.HAL_UART_Transmit)
    __arm_cp.10_0                            0x080020d0   Number         4  stm32g0xx_hal_uart.o(.text.HAL_UART_Transmit)
    [Anonymous Symbol]                       0x080020d4   Section        0  stm32g0xx_hal_uart.o(.text.HAL_UART_TxCpltCallback)
    [Anonymous Symbol]                       0x080020d6   Section        0  stm32g0xx_it.o(.text.HardFault_Handler)
    [Anonymous Symbol]                       0x080020d8   Section        0  stm32g0xx_it.o(.text.NMI_Handler)
    [Anonymous Symbol]                       0x080020da   Section        0  stm32g0xx_it.o(.text.PendSV_Handler)
    [Anonymous Symbol]                       0x080020dc   Section        0  stm32g0xx_hal_rtc.o(.text.RTC_ExitInitMode)
    __arm_cp.3_0                             0x08002170   Number         4  stm32g0xx_hal_rtc.o(.text.RTC_ExitInitMode)
    [Anonymous Symbol]                       0x08002174   Section        0  stm32g0xx_it.o(.text.SVC_Handler)
    [Anonymous Symbol]                       0x08002176   Section        0  stm32g0xx_it.o(.text.SysTick_Handler)
    [Anonymous Symbol]                       0x08002180   Section        0  main.o(.text.SystemClock_Config)
    __arm_cp.1_0                             0x08002230   Number         4  main.o(.text.SystemClock_Config)
    [Anonymous Symbol]                       0x08002234   Section        0  system_stm32g0xx.o(.text.SystemInit)
    __arm_cp.0_0                             0x08002240   Number         4  system_stm32g0xx.o(.text.SystemInit)
    [Anonymous Symbol]                       0x08002244   Section        0  stm32g0xx_it.o(.text.TIM16_IRQHandler)
    __arm_cp.8_0                             0x08002250   Number         4  stm32g0xx_it.o(.text.TIM16_IRQHandler)
    [Anonymous Symbol]                       0x08002254   Section        0  stm32g0xx_it.o(.text.TIM1_BRK_UP_TRG_COM_IRQHandler)
    [Anonymous Symbol]                       0x08002260   Section        0  stm32g0xx_it.o(.text.TIM1_CC_IRQHandler)
    __arm_cp.7_0                             0x0800226c   Number         4  stm32g0xx_it.o(.text.TIM1_CC_IRQHandler)
    [Anonymous Symbol]                       0x08002270   Section        0  stm32g0xx_hal_uart.o(.text.UART_AdvFeatureConfig)
    [Anonymous Symbol]                       0x08002344   Section        0  stm32g0xx_hal_uart.o(.text.UART_CheckIdleState)
    __arm_cp.4_0                             0x0800246c   Number         4  stm32g0xx_hal_uart.o(.text.UART_CheckIdleState)
    UART_DMAAbortOnError                     0x08002471   Thumb Code    22  stm32g0xx_hal_uart.o(.text.UART_DMAAbortOnError)
    [Anonymous Symbol]                       0x08002470   Section        0  stm32g0xx_hal_uart.o(.text.UART_DMAAbortOnError)
    UART_RxISR_16BIT                         0x08002487   Thumb Code   120  stm32g0xx_hal_uart.o(.text.UART_RxISR_16BIT)
    [Anonymous Symbol]                       0x08002486   Section        0  stm32g0xx_hal_uart.o(.text.UART_RxISR_16BIT)
    UART_RxISR_16BIT_FIFOEN                  0x08002501   Thumb Code   336  stm32g0xx_hal_uart.o(.text.UART_RxISR_16BIT_FIFOEN)
    [Anonymous Symbol]                       0x08002500   Section        0  stm32g0xx_hal_uart.o(.text.UART_RxISR_16BIT_FIFOEN)
    __arm_cp.61_1                            0x08002650   Number         4  stm32g0xx_hal_uart.o(.text.UART_RxISR_16BIT_FIFOEN)
    UART_RxISR_8BIT                          0x08002655   Thumb Code   124  stm32g0xx_hal_uart.o(.text.UART_RxISR_8BIT)
    [Anonymous Symbol]                       0x08002654   Section        0  stm32g0xx_hal_uart.o(.text.UART_RxISR_8BIT)
    UART_RxISR_8BIT_FIFOEN                   0x080026d1   Thumb Code   340  stm32g0xx_hal_uart.o(.text.UART_RxISR_8BIT_FIFOEN)
    [Anonymous Symbol]                       0x080026d0   Section        0  stm32g0xx_hal_uart.o(.text.UART_RxISR_8BIT_FIFOEN)
    __arm_cp.62_0                            0x08002824   Number         4  stm32g0xx_hal_uart.o(.text.UART_RxISR_8BIT_FIFOEN)
    [Anonymous Symbol]                       0x08002828   Section        0  stm32g0xx_hal_uart.o(.text.UART_SetConfig)
    __arm_cp.2_0                             0x080029f0   Number         4  stm32g0xx_hal_uart.o(.text.UART_SetConfig)
    __arm_cp.2_1                             0x080029f4   Number         4  stm32g0xx_hal_uart.o(.text.UART_SetConfig)
    __arm_cp.2_2                             0x080029f8   Number         4  stm32g0xx_hal_uart.o(.text.UART_SetConfig)
    __arm_cp.2_3                             0x080029fc   Number         4  stm32g0xx_hal_uart.o(.text.UART_SetConfig)
    __arm_cp.2_4                             0x08002a00   Number         4  stm32g0xx_hal_uart.o(.text.UART_SetConfig)
    __arm_cp.2_5                             0x08002a04   Number         4  stm32g0xx_hal_uart.o(.text.UART_SetConfig)
    __arm_cp.2_6                             0x08002a08   Number         4  stm32g0xx_hal_uart.o(.text.UART_SetConfig)
    __arm_cp.2_7                             0x08002a0c   Number         4  stm32g0xx_hal_uart.o(.text.UART_SetConfig)
    __arm_cp.2_8                             0x08002a10   Number         4  stm32g0xx_hal_uart.o(.text.UART_SetConfig)
    __arm_cp.2_9                             0x08002a14   Number         4  stm32g0xx_hal_uart.o(.text.UART_SetConfig)
    __arm_cp.2_10                            0x08002a18   Number         4  stm32g0xx_hal_uart.o(.text.UART_SetConfig)
    __arm_cp.2_11                            0x08002a1c   Number         4  stm32g0xx_hal_uart.o(.text.UART_SetConfig)
    __arm_cp.2_12                            0x08002a20   Number         4  stm32g0xx_hal_uart.o(.text.UART_SetConfig)
    [Anonymous Symbol]                       0x08002a24   Section        0  stm32g0xx_hal_uart.o(.text.UART_Start_Receive_IT)
    __arm_cp.19_0                            0x08002af4   Number         4  stm32g0xx_hal_uart.o(.text.UART_Start_Receive_IT)
    __arm_cp.19_1                            0x08002af8   Number         4  stm32g0xx_hal_uart.o(.text.UART_Start_Receive_IT)
    __arm_cp.19_2                            0x08002afc   Number         4  stm32g0xx_hal_uart.o(.text.UART_Start_Receive_IT)
    __arm_cp.19_3                            0x08002b00   Number         4  stm32g0xx_hal_uart.o(.text.UART_Start_Receive_IT)
    __arm_cp.19_4                            0x08002b04   Number         4  stm32g0xx_hal_uart.o(.text.UART_Start_Receive_IT)
    [Anonymous Symbol]                       0x08002b08   Section        0  stm32g0xx_hal_uart.o(.text.UART_WaitOnFlagUntilTimeout)
    [Anonymous Symbol]                       0x08002c08   Section        0  stm32g0xx_it.o(.text.USART2_IRQHandler)
    __arm_cp.9_0                             0x08002c14   Number         4  stm32g0xx_it.o(.text.USART2_IRQHandler)
    [Anonymous Symbol]                       0x08002c18   Section        0  main.o(.text.convert_code)
    __arm_cp.12_0                            0x08002da0   Number         4  main.o(.text.convert_code)
    __arm_cp.12_1                            0x08002da4   Number         4  main.o(.text.convert_code)
    __arm_cp.12_2                            0x08002da8   Number         4  main.o(.text.convert_code)
    __arm_cp.12_3                            0x08002dac   Number         4  main.o(.text.convert_code)
    __arm_cp.12_4                            0x08002db0   Number         4  main.o(.text.convert_code)
    __arm_cp.12_5                            0x08002db4   Number         4  main.o(.text.convert_code)
    __arm_cp.12_6                            0x08002db8   Number         4  main.o(.text.convert_code)
    __arm_cp.12_7                            0x08002dbc   Number         4  main.o(.text.convert_code)
    __arm_cp.12_8                            0x08002dc0   Number         4  main.o(.text.convert_code)
    __arm_cp.12_9                            0x08002dc4   Number         4  main.o(.text.convert_code)
    __arm_cp.12_10                           0x08002dc8   Number         4  main.o(.text.convert_code)
    __arm_cp.12_11                           0x08002dcc   Number         4  main.o(.text.convert_code)
    __arm_cp.12_12                           0x08002dd0   Number         4  main.o(.text.convert_code)
    __arm_cp.12_13                           0x08002dd4   Number         4  main.o(.text.convert_code)
    __arm_cp.12_14                           0x08002dd8   Number         4  main.o(.text.convert_code)
    __arm_cp.12_15                           0x08002ddc   Number         4  main.o(.text.convert_code)
    __arm_cp.12_16                           0x08002de0   Number         4  main.o(.text.convert_code)
    __arm_cp.12_17                           0x08002de4   Number         4  main.o(.text.convert_code)
    __arm_cp.12_18                           0x08002de8   Number         4  main.o(.text.convert_code)
    __arm_cp.12_19                           0x08002dec   Number         4  main.o(.text.convert_code)
    __arm_cp.12_20                           0x08002df0   Number         4  main.o(.text.convert_code)
    __arm_cp.12_21                           0x08002df4   Number         4  main.o(.text.convert_code)
    __arm_cp.12_22                           0x08002df8   Number         4  main.o(.text.convert_code)
    __arm_cp.12_23                           0x08002dfc   Number         4  main.o(.text.convert_code)
    __arm_cp.12_24                           0x08002e00   Number         4  main.o(.text.convert_code)
    __arm_cp.12_25                           0x08002e04   Number         4  main.o(.text.convert_code)
    __arm_cp.12_26                           0x08002e08   Number         4  main.o(.text.convert_code)
    __arm_cp.12_27                           0x08002e0c   Number         4  main.o(.text.convert_code)
    __arm_cp.12_28                           0x08002e10   Number         4  main.o(.text.convert_code)
    __arm_cp.12_29                           0x08002e14   Number         4  main.o(.text.convert_code)
    __arm_cp.12_30                           0x08002e18   Number         4  main.o(.text.convert_code)
    __arm_cp.12_31                           0x08002e1c   Number         4  main.o(.text.convert_code)
    __arm_cp.12_32                           0x08002e20   Number         4  main.o(.text.convert_code)
    __arm_cp.12_33                           0x08002e24   Number         4  main.o(.text.convert_code)
    __arm_cp.12_34                           0x08002e28   Number         4  main.o(.text.convert_code)
    __arm_cp.12_35                           0x08002e2c   Number         4  main.o(.text.convert_code)
    __arm_cp.12_36                           0x08002e30   Number         4  main.o(.text.convert_code)
    __arm_cp.12_37                           0x08002e34   Number         4  main.o(.text.convert_code)
    __arm_cp.12_38                           0x08002e38   Number         4  main.o(.text.convert_code)
    __arm_cp.12_39                           0x08002e3c   Number         4  main.o(.text.convert_code)
    __arm_cp.12_40                           0x08002e40   Number         4  main.o(.text.convert_code)
    __arm_cp.12_41                           0x08002e44   Number         4  main.o(.text.convert_code)
    __arm_cp.12_42                           0x08002e48   Number         4  main.o(.text.convert_code)
    [Anonymous Symbol]                       0x08002e4c   Section        0  main.o(.text.initial_setting)
    __arm_cp.2_1                             0x08002ff0   Number         4  main.o(.text.initial_setting)
    [Anonymous Symbol]                       0x08002ff4   Section        0  main.o(.text.main)
    __arm_cp.0_0                             0x08003234   Number         4  main.o(.text.main)
    __arm_cp.0_1                             0x08003238   Number         4  main.o(.text.main)
    __arm_cp.0_2                             0x0800323c   Number         4  main.o(.text.main)
    __arm_cp.0_3                             0x08003240   Number         4  main.o(.text.main)
    __arm_cp.0_4                             0x08003244   Number         4  main.o(.text.main)
    __arm_cp.0_5                             0x08003248   Number         4  main.o(.text.main)
    __arm_cp.0_6                             0x0800324c   Number         4  main.o(.text.main)
    __arm_cp.0_7                             0x08003250   Number         4  main.o(.text.main)
    __arm_cp.0_8                             0x08003254   Number         4  main.o(.text.main)
    __arm_cp.0_9                             0x08003258   Number         4  main.o(.text.main)
    __arm_cp.0_10                            0x0800325c   Number         4  main.o(.text.main)
    __arm_cp.0_11                            0x08003260   Number         4  main.o(.text.main)
    __arm_cp.0_12                            0x08003264   Number         4  main.o(.text.main)
    __arm_cp.0_13                            0x08003268   Number         4  main.o(.text.main)
    __arm_cp.0_14                            0x0800326c   Number         4  main.o(.text.main)
    [Anonymous Symbol]                       0x08003270   Section        0  main.o(.text.print_segment)
    __arm_cp.10_0                            0x08003478   Number         4  main.o(.text.print_segment)
    __arm_cp.10_1                            0x0800347c   Number         4  main.o(.text.print_segment)
    [Anonymous Symbol]                       0x08003490   Section        0  main.o(.text.read_button)
    __arm_cp.16_0                            0x08003588   Number         4  main.o(.text.read_button)
    [Anonymous Symbol]                       0x0800358c   Section        0  main.o(.text.reception)
    __arm_cp.6_0                             0x08003b9c   Number         4  main.o(.text.reception)
    [Anonymous Symbol]                       0x08003ba0   Section        0  main.o(.text.set_time)
    __arm_cp.14_0                            0x08003c70   Number         4  main.o(.text.set_time)
    __arm_cp.14_1                            0x08003c74   Number         4  main.o(.text.set_time)
    __arm_cp.14_2                            0x08003c78   Number         4  main.o(.text.set_time)
    __arm_cp.14_4                            0x08003c98   Number         4  main.o(.text.set_time)
    i.__0sprintf$6                           0x08003c9c   Section        0  printf6.o(i.__0sprintf$6)
    i.__scatterload_copy                     0x08003cc4   Section       14  handlers.o(i.__scatterload_copy)
    i.__scatterload_null                     0x08003cd2   Section        2  handlers.o(i.__scatterload_null)
    i.__scatterload_zeroinit                 0x08003cd4   Section       14  handlers.o(i.__scatterload_zeroinit)
    _printf_core                             0x08003ce5   Thumb Code   768  printf6.o(i._printf_core)
    i._printf_core                           0x08003ce4   Section        0  printf6.o(i._printf_core)
    _printf_post_padding                     0x08003fe9   Thumb Code    32  printf6.o(i._printf_post_padding)
    i._printf_post_padding                   0x08003fe8   Section        0  printf6.o(i._printf_post_padding)
    _printf_pre_padding                      0x08004009   Thumb Code    44  printf6.o(i._printf_pre_padding)
    i._printf_pre_padding                    0x08004008   Section        0  printf6.o(i._printf_pre_padding)
    _sputc                                   0x08004035   Thumb Code    10  printf6.o(i._sputc)
    i._sputc                                 0x08004034   Section        0  printf6.o(i._sputc)
    [Anonymous Symbol]                       0x080040b8   Section        0  main.o(.rodata.cst16)
    [Anonymous Symbol]                       0x080040c8   Section        0  stm32g0xx_hal_uart.o(.rodata.cst16)
    [Anonymous Symbol]                       0x20000000   Section        0  main.o(.data..L_MergedGlobals)
    [Anonymous Symbol]                       0x20000018   Section        0  stm32g0xx_hal.o(.data..L_MergedGlobals)
    [Anonymous Symbol]                       0x20000028   Section        0  main.o(.bss..L_MergedGlobals.15)
    STACK                                    0x20000220   Section     1024  startup_stm32g031xx.o(STACK)

    Global Symbols

    Symbol Name                              Value     Ov Type        Size  Object(Section)

    BuildAttributes$$THM_ISAv3M$S$PE$A:L22$X:L11$S22$IEEE1$IW$~IW$USESV6$~STKCKD$USESV7$~SHL$OTIME$ROPI$EBA8$MICROLIB$REQ8$PRES8$EABIv2 0x00000000   Number         0  anon$$obj.o ABSOLUTE
    _printf_a                                0x00000000   Number         0  printfstubs.o ABSOLUTE
    _printf_c                                0x00000000   Number         0  printfstubs.o ABSOLUTE
    _printf_charcount                        0x00000000   Number         0  printfstubs.o ABSOLUTE
    _printf_d                                0x00000000   Number         0  printfstubs.o ABSOLUTE
    _printf_e                                0x00000000   Number         0  printfstubs.o ABSOLUTE
    _printf_f                                0x00000000   Number         0  printfstubs.o ABSOLUTE
    _printf_flags                            0x00000000   Number         0  printfstubs.o ABSOLUTE
    _printf_fp_dec                           0x00000000   Number         0  printfstubs.o ABSOLUTE
    _printf_fp_hex                           0x00000000   Number         0  printfstubs.o ABSOLUTE
    _printf_g                                0x00000000   Number         0  printfstubs.o ABSOLUTE
    _printf_i                                0x00000000   Number         0  printfstubs.o ABSOLUTE
    _printf_int_dec                          0x00000000   Number         0  printfstubs.o ABSOLUTE
    _printf_l                                0x00000000   Number         0  printfstubs.o ABSOLUTE
    _printf_lc                               0x00000000   Number         0  printfstubs.o ABSOLUTE
    _printf_ll                               0x00000000   Number         0  printfstubs.o ABSOLUTE
    _printf_lld                              0x00000000   Number         0  printfstubs.o ABSOLUTE
    _printf_lli                              0x00000000   Number         0  printfstubs.o ABSOLUTE
    _printf_llo                              0x00000000   Number         0  printfstubs.o ABSOLUTE
    _printf_llu                              0x00000000   Number         0  printfstubs.o ABSOLUTE
    _printf_llx                              0x00000000   Number         0  printfstubs.o ABSOLUTE
    _printf_longlong_dec                     0x00000000   Number         0  printfstubs.o ABSOLUTE
    _printf_longlong_hex                     0x00000000   Number         0  printfstubs.o ABSOLUTE
    _printf_longlong_oct                     0x00000000   Number         0  printfstubs.o ABSOLUTE
    _printf_ls                               0x00000000   Number         0  printfstubs.o ABSOLUTE
    _printf_mbtowc                           0x00000000   Number         0  printfstubs.o ABSOLUTE
    _printf_n                                0x00000000   Number         0  printfstubs.o ABSOLUTE
    _printf_o                                0x00000000   Number         0  printfstubs.o ABSOLUTE
    _printf_p                                0x00000000   Number         0  printfstubs.o ABSOLUTE
    _printf_percent                          0x00000000   Number         0  printfstubs.o ABSOLUTE
    _printf_pre_padding                      0x00000000   Number         0  printfstubs.o ABSOLUTE
    _printf_return_value                     0x00000000   Number         0  printfstubs.o ABSOLUTE
    _printf_s                                0x00000000   Number         0  printfstubs.o ABSOLUTE
    _printf_sizespec                         0x00000000   Number         0  printfstubs.o ABSOLUTE
    _printf_str                              0x00000000   Number         0  printfstubs.o ABSOLUTE
    _printf_truncate_signed                  0x00000000   Number         0  printfstubs.o ABSOLUTE
    _printf_truncate_unsigned                0x00000000   Number         0  printfstubs.o ABSOLUTE
    _printf_u                                0x00000000   Number         0  printfstubs.o ABSOLUTE
    _printf_wc                               0x00000000   Number         0  printfstubs.o ABSOLUTE
    _printf_wctomb                           0x00000000   Number         0  printfstubs.o ABSOLUTE
    _printf_widthprec                        0x00000000   Number         0  printfstubs.o ABSOLUTE
    _printf_x                                0x00000000   Number         0  printfstubs.o ABSOLUTE
    __cpp_initialize__aeabi_                  - Undefined Weak Reference
    __cxa_finalize                            - Undefined Weak Reference
    __decompress                              - Undefined Weak Reference
    _clock_init                               - Undefined Weak Reference
    _microlib_exit                            - Undefined Weak Reference
    __Vectors_Size                           0x000000c0   Number         0  startup_stm32g031xx.o ABSOLUTE
    __Vectors                                0x08000000   Data           4  startup_stm32g031xx.o(RESET)
    __Vectors_End                            0x080000c0   Data           0  startup_stm32g031xx.o(RESET)
    __main                                   0x080000c1   Thumb Code     0  entry.o(.ARM.Collect$$$$00000000)
    _main_stk                                0x080000c1   Thumb Code     0  entry2.o(.ARM.Collect$$$$00000001)
    _main_scatterload                        0x080000c5   Thumb Code     0  entry5.o(.ARM.Collect$$$$00000004)
    __main_after_scatterload                 0x080000c9   Thumb Code     0  entry5.o(.ARM.Collect$$$$00000004)
    _main_clock                              0x080000c9   Thumb Code     0  entry7b.o(.ARM.Collect$$$$00000008)
    _main_cpp_init                           0x080000c9   Thumb Code     0  entry8b.o(.ARM.Collect$$$$0000000A)
    _main_init                               0x080000c9   Thumb Code     0  entry9a.o(.ARM.Collect$$$$0000000B)
    __rt_final_cpp                           0x080000d1   Thumb Code     0  entry10a.o(.ARM.Collect$$$$0000000D)
    __rt_final_exit                          0x080000d1   Thumb Code     0  entry11a.o(.ARM.Collect$$$$0000000F)
    Reset_Handler                            0x080000d5   Thumb Code     8  startup_stm32g031xx.o(.text)
    ADC1_IRQHandler                          0x080000e7   Thumb Code     0  startup_stm32g031xx.o(.text)
    DMA1_Ch4_5_DMAMUX1_OVR_IRQHandler        0x080000e7   Thumb Code     0  startup_stm32g031xx.o(.text)
    DMA1_Channel1_IRQHandler                 0x080000e7   Thumb Code     0  startup_stm32g031xx.o(.text)
    DMA1_Channel2_3_IRQHandler               0x080000e7   Thumb Code     0  startup_stm32g031xx.o(.text)
    EXTI0_1_IRQHandler                       0x080000e7   Thumb Code     0  startup_stm32g031xx.o(.text)
    EXTI2_3_IRQHandler                       0x080000e7   Thumb Code     0  startup_stm32g031xx.o(.text)
    FLASH_IRQHandler                         0x080000e7   Thumb Code     0  startup_stm32g031xx.o(.text)
    I2C1_IRQHandler                          0x080000e7   Thumb Code     0  startup_stm32g031xx.o(.text)
    I2C2_IRQHandler                          0x080000e7   Thumb Code     0  startup_stm32g031xx.o(.text)
    LPTIM1_IRQHandler                        0x080000e7   Thumb Code     0  startup_stm32g031xx.o(.text)
    LPTIM2_IRQHandler                        0x080000e7   Thumb Code     0  startup_stm32g031xx.o(.text)
    LPUART1_IRQHandler                       0x080000e7   Thumb Code     0  startup_stm32g031xx.o(.text)
    PVD_IRQHandler                           0x080000e7   Thumb Code     0  startup_stm32g031xx.o(.text)
    RCC_IRQHandler                           0x080000e7   Thumb Code     0  startup_stm32g031xx.o(.text)
    RTC_TAMP_IRQHandler                      0x080000e7   Thumb Code     0  startup_stm32g031xx.o(.text)
    SPI1_IRQHandler                          0x080000e7   Thumb Code     0  startup_stm32g031xx.o(.text)
    SPI2_IRQHandler                          0x080000e7   Thumb Code     0  startup_stm32g031xx.o(.text)
    TIM14_IRQHandler                         0x080000e7   Thumb Code     0  startup_stm32g031xx.o(.text)
    TIM17_IRQHandler                         0x080000e7   Thumb Code     0  startup_stm32g031xx.o(.text)
    TIM2_IRQHandler                          0x080000e7   Thumb Code     0  startup_stm32g031xx.o(.text)
    TIM3_IRQHandler                          0x080000e7   Thumb Code     0  startup_stm32g031xx.o(.text)
    USART1_IRQHandler                        0x080000e7   Thumb Code     0  startup_stm32g031xx.o(.text)
    WWDG_IRQHandler                          0x080000e7   Thumb Code     0  startup_stm32g031xx.o(.text)
    __aeabi_uldivmod                         0x080000f1   Thumb Code    96  uldiv.o(.text)
    __aeabi_memset                           0x08000151   Thumb Code    14  memseta.o(.text)
    __aeabi_memset4                          0x08000151   Thumb Code     0  memseta.o(.text)
    __aeabi_memset8                          0x08000151   Thumb Code     0  memseta.o(.text)
    __aeabi_memclr                           0x0800015f   Thumb Code     4  memseta.o(.text)
    __aeabi_memclr4                          0x0800015f   Thumb Code     0  memseta.o(.text)
    __aeabi_memclr8                          0x0800015f   Thumb Code     0  memseta.o(.text)
    _memset$wrapper                          0x08000163   Thumb Code    18  memseta.o(.text)
    __aeabi_uidiv                            0x08000175   Thumb Code     0  uidiv_div0.o(.text)
    __aeabi_uidivmod                         0x08000175   Thumb Code    62  uidiv_div0.o(.text)
    __aeabi_llsl                             0x080001b3   Thumb Code    32  llshl.o(.text)
    _ll_shift_l                              0x080001b3   Thumb Code     0  llshl.o(.text)
    __aeabi_llsr                             0x080001d3   Thumb Code    34  llushr.o(.text)
    _ll_ushift_r                             0x080001d3   Thumb Code     0  llushr.o(.text)
    __scatterload                            0x080001f5   Thumb Code    28  init.o(.text)
    __scatterload_rt2                        0x080001f5   Thumb Code     0  init.o(.text)
    EXTI4_15_IRQHandler                      0x08000219   Thumb Code    10  stm32g0xx_it.o(.text.EXTI4_15_IRQHandler)
    HAL_DMA_Abort                            0x08000225   Thumb Code   112  stm32g0xx_hal_dma.o(.text.HAL_DMA_Abort)
    HAL_DMA_Abort_IT                         0x08000295   Thumb Code   112  stm32g0xx_hal_dma.o(.text.HAL_DMA_Abort_IT)
    HAL_Delay                                0x0800030d   Thumb Code    32  stm32g0xx_hal.o(.text.HAL_Delay)
    HAL_GPIO_EXTI_Falling_Callback           0x0800032d   Thumb Code   124  main.o(.text.HAL_GPIO_EXTI_Falling_Callback)
    HAL_GPIO_EXTI_IRQHandler                 0x080003bd   Thumb Code    36  stm32g0xx_hal_gpio.o(.text.HAL_GPIO_EXTI_IRQHandler)
    HAL_GPIO_EXTI_Rising_Callback            0x080003e5   Thumb Code     2  stm32g0xx_hal_gpio.o(.text.HAL_GPIO_EXTI_Rising_Callback)
    HAL_GPIO_Init                            0x080003e9   Thumb Code   412  stm32g0xx_hal_gpio.o(.text.HAL_GPIO_Init)
    HAL_GPIO_TogglePin                       0x0800059d   Thumb Code    16  stm32g0xx_hal_gpio.o(.text.HAL_GPIO_TogglePin)
    HAL_GPIO_WritePin                        0x080005ad   Thumb Code    16  stm32g0xx_hal_gpio.o(.text.HAL_GPIO_WritePin)
    HAL_GetTick                              0x080005bd   Thumb Code     8  stm32g0xx_hal.o(.text.HAL_GetTick)
    HAL_IncTick                              0x080005c5   Thumb Code    16  stm32g0xx_hal.o(.text.HAL_IncTick)
    HAL_Init                                 0x080005d9   Thumb Code    40  stm32g0xx_hal.o(.text.HAL_Init)
    HAL_InitTick                             0x08000605   Thumb Code    64  stm32g0xx_hal.o(.text.HAL_InitTick)
    HAL_MspInit                              0x08000649   Thumb Code    40  stm32g0xx_hal_msp.o(.text.HAL_MspInit)
    HAL_NVIC_EnableIRQ                       0x08000675   Thumb Code    20  stm32g0xx_hal_cortex.o(.text.HAL_NVIC_EnableIRQ)
    HAL_NVIC_SetPriority                     0x0800068d   Thumb Code    56  stm32g0xx_hal_cortex.o(.text.HAL_NVIC_SetPriority)
    HAL_PWREx_ControlVoltageScaling          0x080006cd   Thumb Code   116  stm32g0xx_hal_pwr_ex.o(.text.HAL_PWREx_ControlVoltageScaling)
    HAL_PWR_EnableBkUpAccess                 0x0800074d   Thumb Code    16  stm32g0xx_hal_pwr.o(.text.HAL_PWR_EnableBkUpAccess)
    HAL_RCCEx_PeriphCLKConfig                0x0800075d   Thumb Code   436  stm32g0xx_hal_rcc_ex.o(.text.HAL_RCCEx_PeriphCLKConfig)
    HAL_RCC_ClockConfig                      0x08000921   Thumb Code   488  stm32g0xx_hal_rcc.o(.text.HAL_RCC_ClockConfig)
    HAL_RCC_GetPCLK1Freq                     0x08000b19   Thumb Code    28  stm32g0xx_hal_rcc.o(.text.HAL_RCC_GetPCLK1Freq)
    HAL_RCC_GetSysClockFreq                  0x08000b3d   Thumb Code   124  stm32g0xx_hal_rcc.o(.text.HAL_RCC_GetSysClockFreq)
    HAL_RCC_OscConfig                        0x08000bc5   Thumb Code  1100  stm32g0xx_hal_rcc.o(.text.HAL_RCC_OscConfig)
    HAL_RTCEx_BKUPWrite                      0x0800102d   Thumb Code    18  stm32g0xx_hal_rtc_ex.o(.text.HAL_RTCEx_BKUPWrite)
    HAL_RTC_GetDate                          0x0800103f   Thumb Code    78  stm32g0xx_hal_rtc.o(.text.HAL_RTC_GetDate)
    HAL_RTC_GetTime                          0x0800108d   Thumb Code   104  stm32g0xx_hal_rtc.o(.text.HAL_RTC_GetTime)
    HAL_RTC_Init                             0x080010f9   Thumb Code   200  stm32g0xx_hal_rtc.o(.text.HAL_RTC_Init)
    HAL_RTC_MspInit                          0x080011c5   Thumb Code    48  stm32g0xx_hal_msp.o(.text.HAL_RTC_MspInit)
    HAL_RTC_SetDate                          0x080011fd   Thumb Code   302  stm32g0xx_hal_rtc.o(.text.HAL_RTC_SetDate)
    HAL_RTC_SetTime                          0x0800132d   Thumb Code   340  stm32g0xx_hal_rtc.o(.text.HAL_RTC_SetTime)
    HAL_SYSTICK_Config                       0x08001485   Thumb Code    40  stm32g0xx_hal_cortex.o(.text.HAL_SYSTICK_Config)
    HAL_TIMEx_Break2Callback                 0x080014b9   Thumb Code     2  stm32g0xx_hal_tim_ex.o(.text.HAL_TIMEx_Break2Callback)
    HAL_TIMEx_BreakCallback                  0x080014bb   Thumb Code     2  stm32g0xx_hal_tim_ex.o(.text.HAL_TIMEx_BreakCallback)
    HAL_TIMEx_CommutCallback                 0x080014bd   Thumb Code     2  stm32g0xx_hal_tim_ex.o(.text.HAL_TIMEx_CommutCallback)
    HAL_TIMEx_MasterConfigSynchronization    0x080014c1   Thumb Code    96  stm32g0xx_hal_tim_ex.o(.text.HAL_TIMEx_MasterConfigSynchronization)
    HAL_TIM_Base_Init                        0x08001521   Thumb Code   204  stm32g0xx_hal_tim.o(.text.HAL_TIM_Base_Init)
    HAL_TIM_Base_MspInit                     0x080015f9   Thumb Code   148  stm32g0xx_hal_msp.o(.text.HAL_TIM_Base_MspInit)
    HAL_TIM_Base_Start                       0x08001695   Thumb Code    76  stm32g0xx_hal_tim.o(.text.HAL_TIM_Base_Start)
    HAL_TIM_Base_Start_IT                    0x080016e1   Thumb Code    80  stm32g0xx_hal_tim.o(.text.HAL_TIM_Base_Start_IT)
    HAL_TIM_ConfigClockSource                0x0800173d   Thumb Code   312  stm32g0xx_hal_tim.o(.text.HAL_TIM_ConfigClockSource)
    HAL_TIM_IC_CaptureCallback               0x0800187d   Thumb Code     2  stm32g0xx_hal_tim.o(.text.HAL_TIM_IC_CaptureCallback)
    HAL_TIM_IRQHandler                       0x08001881   Thumb Code   352  stm32g0xx_hal_tim.o(.text.HAL_TIM_IRQHandler)
    HAL_TIM_OC_DelayElapsedCallback          0x080019e5   Thumb Code     2  stm32g0xx_hal_tim.o(.text.HAL_TIM_OC_DelayElapsedCallback)
    HAL_TIM_PWM_PulseFinishedCallback        0x080019e7   Thumb Code     2  stm32g0xx_hal_tim.o(.text.HAL_TIM_PWM_PulseFinishedCallback)
    HAL_TIM_PeriodElapsedCallback            0x080019e9   Thumb Code    28  main.o(.text.HAL_TIM_PeriodElapsedCallback)
    HAL_TIM_TriggerCallback                  0x08001a09   Thumb Code     2  stm32g0xx_hal_tim.o(.text.HAL_TIM_TriggerCallback)
    HAL_UARTEx_RxEventCallback               0x08001a0b   Thumb Code     2  stm32g0xx_hal_uart.o(.text.HAL_UARTEx_RxEventCallback)
    HAL_UARTEx_RxFifoFullCallback            0x08001a0d   Thumb Code     2  stm32g0xx_hal_uart_ex.o(.text.HAL_UARTEx_RxFifoFullCallback)
    HAL_UARTEx_TxFifoEmptyCallback           0x08001a0f   Thumb Code     2  stm32g0xx_hal_uart_ex.o(.text.HAL_UARTEx_TxFifoEmptyCallback)
    HAL_UARTEx_WakeupCallback                0x08001a11   Thumb Code     2  stm32g0xx_hal_uart_ex.o(.text.HAL_UARTEx_WakeupCallback)
    HAL_UART_ErrorCallback                   0x08001a13   Thumb Code     2  stm32g0xx_hal_uart.o(.text.HAL_UART_ErrorCallback)
    HAL_UART_IRQHandler                      0x08001a15   Thumb Code   936  stm32g0xx_hal_uart.o(.text.HAL_UART_IRQHandler)
    HAL_UART_Init                            0x08001dcd   Thumb Code   108  stm32g0xx_hal_uart.o(.text.HAL_UART_Init)
    HAL_UART_MspInit                         0x08001e39   Thumb Code   100  stm32g0xx_hal_msp.o(.text.HAL_UART_MspInit)
    HAL_UART_Receive_IT                      0x08001ea5   Thumb Code    76  stm32g0xx_hal_uart.o(.text.HAL_UART_Receive_IT)
    HAL_UART_RxCpltCallback                  0x08001ef1   Thumb Code   152  main.o(.text.HAL_UART_RxCpltCallback)
    HAL_UART_Transmit                        0x08001fcd   Thumb Code   260  stm32g0xx_hal_uart.o(.text.HAL_UART_Transmit)
    HAL_UART_TxCpltCallback                  0x080020d5   Thumb Code     2  stm32g0xx_hal_uart.o(.text.HAL_UART_TxCpltCallback)
    HardFault_Handler                        0x080020d7   Thumb Code     2  stm32g0xx_it.o(.text.HardFault_Handler)
    NMI_Handler                              0x080020d9   Thumb Code     2  stm32g0xx_it.o(.text.NMI_Handler)
    PendSV_Handler                           0x080020db   Thumb Code     2  stm32g0xx_it.o(.text.PendSV_Handler)
    RTC_ExitInitMode                         0x080020dd   Thumb Code   148  stm32g0xx_hal_rtc.o(.text.RTC_ExitInitMode)
    SVC_Handler                              0x08002175   Thumb Code     2  stm32g0xx_it.o(.text.SVC_Handler)
    SysTick_Handler                          0x08002177   Thumb Code     8  stm32g0xx_it.o(.text.SysTick_Handler)
    SystemClock_Config                       0x08002181   Thumb Code   176  main.o(.text.SystemClock_Config)
    SystemInit                               0x08002235   Thumb Code    12  system_stm32g0xx.o(.text.SystemInit)
    TIM16_IRQHandler                         0x08002245   Thumb Code    12  stm32g0xx_it.o(.text.TIM16_IRQHandler)
    TIM1_BRK_UP_TRG_COM_IRQHandler           0x08002255   Thumb Code    12  stm32g0xx_it.o(.text.TIM1_BRK_UP_TRG_COM_IRQHandler)
    TIM1_CC_IRQHandler                       0x08002261   Thumb Code    12  stm32g0xx_it.o(.text.TIM1_CC_IRQHandler)
    UART_AdvFeatureConfig                    0x08002271   Thumb Code   210  stm32g0xx_hal_uart.o(.text.UART_AdvFeatureConfig)
    UART_CheckIdleState                      0x08002345   Thumb Code   296  stm32g0xx_hal_uart.o(.text.UART_CheckIdleState)
    UART_SetConfig                           0x08002829   Thumb Code   456  stm32g0xx_hal_uart.o(.text.UART_SetConfig)
    UART_Start_Receive_IT                    0x08002a25   Thumb Code   208  stm32g0xx_hal_uart.o(.text.UART_Start_Receive_IT)
    UART_WaitOnFlagUntilTimeout              0x08002b09   Thumb Code   256  stm32g0xx_hal_uart.o(.text.UART_WaitOnFlagUntilTimeout)
    USART2_IRQHandler                        0x08002c09   Thumb Code    12  stm32g0xx_it.o(.text.USART2_IRQHandler)
    convert_code                             0x08002c19   Thumb Code   392  main.o(.text.convert_code)
    initial_setting                          0x08002e4d   Thumb Code   420  main.o(.text.initial_setting)
    main                                     0x08002ff5   Thumb Code   576  main.o(.text.main)
    print_segment                            0x08003271   Thumb Code   520  main.o(.text.print_segment)
    read_button                              0x08003491   Thumb Code   248  main.o(.text.read_button)
    reception                                0x0800358d   Thumb Code  1552  main.o(.text.reception)
    set_time                                 0x08003ba1   Thumb Code   208  main.o(.text.set_time)
    __0sprintf$6                             0x08003c9d   Thumb Code    36  printf6.o(i.__0sprintf$6)
    __1sprintf$6                             0x08003c9d   Thumb Code     0  printf6.o(i.__0sprintf$6)
    __2sprintf                               0x08003c9d   Thumb Code     0  printf6.o(i.__0sprintf$6)
    __scatterload_copy                       0x08003cc5   Thumb Code    14  handlers.o(i.__scatterload_copy)
    __scatterload_null                       0x08003cd3   Thumb Code     2  handlers.o(i.__scatterload_null)
    __scatterload_zeroinit                   0x08003cd5   Thumb Code    14  handlers.o(i.__scatterload_zeroinit)
    AHBPrescTable                            0x08004040   Data          64  system_stm32g0xx.o(.rodata.AHBPrescTable)
    APBPrescTable                            0x08004080   Data          32  system_stm32g0xx.o(.rodata.APBPrescTable)
    UARTPrescTable                           0x080040a0   Data          24  stm32g0xx_hal_uart.o(.rodata.UARTPrescTable)
    Region$$Table$$Base                      0x080040d8   Number         0  anon$$obj.o(Region$$Table)
    Region$$Table$$Limit                     0x080040f8   Number         0  anon$$obj.o(Region$$Table)
    pw_sel                                   0x20000000   Data           8  main.o(.data..L_MergedGlobals)
    dig_sel                                  0x20000008   Data          14  main.o(.data..L_MergedGlobals)
    uwTickFreq                               0x20000018   Data           1  stm32g0xx_hal.o(.data..L_MergedGlobals)
    uwTickPrio                               0x2000001c   Data           4  stm32g0xx_hal.o(.data..L_MergedGlobals)
    SystemCoreClock                          0x20000020   Data           4  system_stm32g0xx.o(.data.SystemCoreClock)
    edit_mode                                0x20000028   Data           1  main.o(.bss..L_MergedGlobals.15)
    display_edit                             0x20000029   Data           1  main.o(.bss..L_MergedGlobals.15)
    data_cmd_1                               0x2000002a   Data           1  main.o(.bss..L_MergedGlobals.15)
    data_cmd_2                               0x2000002b   Data           1  main.o(.bss..L_MergedGlobals.15)
    data_cmd_3                               0x2000002c   Data           1  main.o(.bss..L_MergedGlobals.15)
    data_cmd_4                               0x2000002d   Data           1  main.o(.bss..L_MergedGlobals.15)
    backup_hour                              0x2000002e   Data           1  main.o(.bss..L_MergedGlobals.15)
    backup_minutes                           0x2000002f   Data           1  main.o(.bss..L_MergedGlobals.15)
    edit_select                              0x20000030   Data           1  main.o(.bss..L_MergedGlobals.15)
    bitindex                                 0x20000031   Data           1  main.o(.bss..L_MergedGlobals.15)
    cmdli                                    0x20000032   Data           1  main.o(.bss..L_MergedGlobals.15)
    cmd                                      0x20000033   Data           1  main.o(.bss..L_MergedGlobals.15)
    uart_buf_len                             0x20000034   Data           4  main.o(.bss..L_MergedGlobals.15)
    code                                     0x20000038   Data           4  main.o(.bss..L_MergedGlobals.15)
    last_code                                0x2000003c   Data           4  main.o(.bss..L_MergedGlobals.15)
    tempcode                                 0x20000040   Data           4  main.o(.bss..L_MergedGlobals.15)
    hrtc                                     0x20000044   Data          44  main.o(.bss..L_MergedGlobals.15)
    uart_buf                                 0x20000070   Data          50  main.o(.bss..L_MergedGlobals.15)
    htim1                                    0x200000a4   Data          76  main.o(.bss.htim1)
    htim16                                   0x200000f0   Data          76  main.o(.bss.htim16)
    htim2                                    0x2000013c   Data          76  main.o(.bss.htim2)
    huart2                                   0x20000188   Data         144  main.o(.bss.huart2)
    uwTick                                   0x20000218   Data           4  stm32g0xx_hal.o(.bss.uwTick)
    __initial_sp                             0x20000620   Data           0  startup_stm32g031xx.o(STACK)



==============================================================================

Memory Map of the image

  Image Entry point : 0x080000c1

  Load Region LR_IROM1 (Base: 0x08000000, Size: 0x00004120, Max: 0x00010000, ABSOLUTE)

    Execution Region ER_IROM1 (Exec base: 0x08000000, Load base: 0x08000000, Size: 0x000040f8, Max: 0x00010000, ABSOLUTE)

    Exec Addr    Load Addr    Size         Type   Attr      Idx    E Section Name        Object

    0x08000000   0x08000000   0x000000c0   Data   RO            3    RESET               startup_stm32g031xx.o
    0x080000c0   0x080000c0   0x00000000   Code   RO         1224  * .ARM.Collect$$$$00000000  mc_p.l(entry.o)
    0x080000c0   0x080000c0   0x00000004   Code   RO         1498    .ARM.Collect$$$$00000001  mc_p.l(entry2.o)
    0x080000c4   0x080000c4   0x00000004   Code   RO         1501    .ARM.Collect$$$$00000004  mc_p.l(entry5.o)
    0x080000c8   0x080000c8   0x00000000   Code   RO         1503    .ARM.Collect$$$$00000008  mc_p.l(entry7b.o)
    0x080000c8   0x080000c8   0x00000000   Code   RO         1505    .ARM.Collect$$$$0000000A  mc_p.l(entry8b.o)
    0x080000c8   0x080000c8   0x00000008   Code   RO         1506    .ARM.Collect$$$$0000000B  mc_p.l(entry9a.o)
    0x080000d0   0x080000d0   0x00000000   Code   RO         1508    .ARM.Collect$$$$0000000D  mc_p.l(entry10a.o)
    0x080000d0   0x080000d0   0x00000000   Code   RO         1510    .ARM.Collect$$$$0000000F  mc_p.l(entry11a.o)
    0x080000d0   0x080000d0   0x00000004   Code   RO         1499    .ARM.Collect$$$$00002712  mc_p.l(entry2.o)
    0x080000d4   0x080000d4   0x0000001c   Code   RO            4    .text               startup_stm32g031xx.o
    0x080000f0   0x080000f0   0x00000060   Code   RO         1233    .text               mc_p.l(uldiv.o)
    0x08000150   0x08000150   0x00000024   Code   RO         1235    .text               mc_p.l(memseta.o)
    0x08000174   0x08000174   0x0000003e   Code   RO         1521    .text               mc_p.l(uidiv_div0.o)
    0x080001b2   0x080001b2   0x00000020   Code   RO         1527    .text               mc_p.l(llshl.o)
    0x080001d2   0x080001d2   0x00000022   Code   RO         1529    .text               mc_p.l(llushr.o)
    0x080001f4   0x080001f4   0x00000024   Code   RO         1542    .text               mc_p.l(init.o)
    0x08000218   0x08000218   0x0000000a   Code   RO           81    .text.EXTI4_15_IRQHandler  stm32g0xx_it.o
    0x08000222   0x08000222   0x00000002   PAD
    0x08000224   0x08000224   0x00000070   Code   RO          418    .text.HAL_DMA_Abort  stm32g0xx_hal_dma.o
    0x08000294   0x08000294   0x00000078   Code   RO          420    .text.HAL_DMA_Abort_IT  stm32g0xx_hal_dma.o
    0x0800030c   0x0800030c   0x00000020   Code   RO          613    .text.HAL_Delay     stm32g0xx_hal.o
    0x0800032c   0x0800032c   0x00000090   Code   RO           49    .text.HAL_GPIO_EXTI_Falling_Callback  main.o
    0x080003bc   0x080003bc   0x00000028   Code   RO          396    .text.HAL_GPIO_EXTI_IRQHandler  stm32g0xx_hal_gpio.o
    0x080003e4   0x080003e4   0x00000002   Code   RO          398    .text.HAL_GPIO_EXTI_Rising_Callback  stm32g0xx_hal_gpio.o
    0x080003e6   0x080003e6   0x00000002   PAD
    0x080003e8   0x080003e8   0x000001b4   Code   RO          384    .text.HAL_GPIO_Init  stm32g0xx_hal_gpio.o
    0x0800059c   0x0800059c   0x00000010   Code   RO          392    .text.HAL_GPIO_TogglePin  stm32g0xx_hal_gpio.o
    0x080005ac   0x080005ac   0x00000010   Code   RO          390    .text.HAL_GPIO_WritePin  stm32g0xx_hal_gpio.o
    0x080005bc   0x080005bc   0x00000008   Code   RO          605    .text.HAL_GetTick   stm32g0xx_hal.o
    0x080005c4   0x080005c4   0x00000014   Code   RO          603    .text.HAL_IncTick   stm32g0xx_hal.o
    0x080005d8   0x080005d8   0x0000002c   Code   RO          593    .text.HAL_Init      stm32g0xx_hal.o
    0x08000604   0x08000604   0x00000044   Code   RO          595    .text.HAL_InitTick  stm32g0xx_hal.o
    0x08000648   0x08000648   0x0000002c   Code   RO           98    .text.HAL_MspInit   stm32g0xx_hal_msp.o
    0x08000674   0x08000674   0x00000018   Code   RO          557    .text.HAL_NVIC_EnableIRQ  stm32g0xx_hal_cortex.o
    0x0800068c   0x0800068c   0x00000040   Code   RO          555    .text.HAL_NVIC_SetPriority  stm32g0xx_hal_cortex.o
    0x080006cc   0x080006cc   0x00000080   Code   RO          533    .text.HAL_PWREx_ControlVoltageScaling  stm32g0xx_hal_pwr_ex.o
    0x0800074c   0x0800074c   0x00000010   Code   RO          463    .text.HAL_PWR_EnableBkUpAccess  stm32g0xx_hal_pwr.o
    0x0800075c   0x0800075c   0x000001c4   Code   RO          302    .text.HAL_RCCEx_PeriphCLKConfig  stm32g0xx_hal_rcc_ex.o
    0x08000920   0x08000920   0x000001f8   Code   RO          268    .text.HAL_RCC_ClockConfig  stm32g0xx_hal_rcc.o
    0x08000b18   0x08000b18   0x00000024   Code   RO          276    .text.HAL_RCC_GetPCLK1Freq  stm32g0xx_hal_rcc.o
    0x08000b3c   0x08000b3c   0x00000088   Code   RO          270    .text.HAL_RCC_GetSysClockFreq  stm32g0xx_hal_rcc.o
    0x08000bc4   0x08000bc4   0x00000468   Code   RO          266    .text.HAL_RCC_OscConfig  stm32g0xx_hal_rcc.o
    0x0800102c   0x0800102c   0x00000012   Code   RO          252    .text.HAL_RTCEx_BKUPWrite  stm32g0xx_hal_rtc_ex.o
    0x0800103e   0x0800103e   0x0000004e   Code   RO          142    .text.HAL_RTC_GetDate  stm32g0xx_hal_rtc.o
    0x0800108c   0x0800108c   0x0000006c   Code   RO          136    .text.HAL_RTC_GetTime  stm32g0xx_hal_rtc.o
    0x080010f8   0x080010f8   0x000000cc   Code   RO          120    .text.HAL_RTC_Init  stm32g0xx_hal_rtc.o
    0x080011c4   0x080011c4   0x00000038   Code   RO          100    .text.HAL_RTC_MspInit  stm32g0xx_hal_msp.o
    0x080011fc   0x080011fc   0x0000012e   Code   RO          140    .text.HAL_RTC_SetDate  stm32g0xx_hal_rtc.o
    0x0800132a   0x0800132a   0x00000002   PAD
    0x0800132c   0x0800132c   0x00000158   Code   RO          132    .text.HAL_RTC_SetTime  stm32g0xx_hal_rtc.o
    0x08001484   0x08001484   0x00000034   Code   RO          563    .text.HAL_SYSTICK_Config  stm32g0xx_hal_cortex.o
    0x080014b8   0x080014b8   0x00000002   Code   RO         1013    .text.HAL_TIMEx_Break2Callback  stm32g0xx_hal_tim_ex.o
    0x080014ba   0x080014ba   0x00000002   Code   RO         1011    .text.HAL_TIMEx_BreakCallback  stm32g0xx_hal_tim_ex.o
    0x080014bc   0x080014bc   0x00000002   Code   RO         1007    .text.HAL_TIMEx_CommutCallback  stm32g0xx_hal_tim_ex.o
    0x080014be   0x080014be   0x00000002   PAD
    0x080014c0   0x080014c0   0x00000060   Code   RO          991    .text.HAL_TIMEx_MasterConfigSynchronization  stm32g0xx_hal_tim_ex.o
    0x08001520   0x08001520   0x000000d8   Code   RO          697    .text.HAL_TIM_Base_Init  stm32g0xx_hal_tim.o
    0x080015f8   0x080015f8   0x0000009c   Code   RO          104    .text.HAL_TIM_Base_MspInit  stm32g0xx_hal_msp.o
    0x08001694   0x08001694   0x0000004c   Code   RO          707    .text.HAL_TIM_Base_Start  stm32g0xx_hal_tim.o
    0x080016e0   0x080016e0   0x0000005c   Code   RO          711    .text.HAL_TIM_Base_Start_IT  stm32g0xx_hal_tim.o
    0x0800173c   0x0800173c   0x00000140   Code   RO          877    .text.HAL_TIM_ConfigClockSource  stm32g0xx_hal_tim.o
    0x0800187c   0x0800187c   0x00000002   Code   RO          833    .text.HAL_TIM_IC_CaptureCallback  stm32g0xx_hal_tim.o
    0x0800187e   0x0800187e   0x00000002   PAD
    0x08001880   0x08001880   0x00000164   Code   RO          831    .text.HAL_TIM_IRQHandler  stm32g0xx_hal_tim.o
    0x080019e4   0x080019e4   0x00000002   Code   RO          835    .text.HAL_TIM_OC_DelayElapsedCallback  stm32g0xx_hal_tim.o
    0x080019e6   0x080019e6   0x00000002   Code   RO          837    .text.HAL_TIM_PWM_PulseFinishedCallback  stm32g0xx_hal_tim.o
    0x080019e8   0x080019e8   0x00000020   Code   RO           47    .text.HAL_TIM_PeriodElapsedCallback  main.o
    0x08001a08   0x08001a08   0x00000002   Code   RO          841    .text.HAL_TIM_TriggerCallback  stm32g0xx_hal_tim.o
    0x08001a0a   0x08001a0a   0x00000002   Code   RO         1117    .text.HAL_UARTEx_RxEventCallback  stm32g0xx_hal_uart.o
    0x08001a0c   0x08001a0c   0x00000002   Code   RO         1175    .text.HAL_UARTEx_RxFifoFullCallback  stm32g0xx_hal_uart_ex.o
    0x08001a0e   0x08001a0e   0x00000002   Code   RO         1177    .text.HAL_UARTEx_TxFifoEmptyCallback  stm32g0xx_hal_uart_ex.o
    0x08001a10   0x08001a10   0x00000002   Code   RO         1173    .text.HAL_UARTEx_WakeupCallback  stm32g0xx_hal_uart_ex.o
    0x08001a12   0x08001a12   0x00000002   Code   RO         1115    .text.HAL_UART_ErrorCallback  stm32g0xx_hal_uart.o
    0x08001a14   0x08001a14   0x000003b8   Code   RO         1111    .text.HAL_UART_IRQHandler  stm32g0xx_hal_uart.o
    0x08001dcc   0x08001dcc   0x0000006c   Code   RO         1027    .text.HAL_UART_Init  stm32g0xx_hal_uart.o
    0x08001e38   0x08001e38   0x0000006c   Code   RO          108    .text.HAL_UART_MspInit  stm32g0xx_hal_msp.o
    0x08001ea4   0x08001ea4   0x0000004c   Code   RO         1063    .text.HAL_UART_Receive_IT  stm32g0xx_hal_uart.o
    0x08001ef0   0x08001ef0   0x000000dc   Code   RO           51    .text.HAL_UART_RxCpltCallback  main.o
    0x08001fcc   0x08001fcc   0x00000108   Code   RO         1047    .text.HAL_UART_Transmit  stm32g0xx_hal_uart.o
    0x080020d4   0x080020d4   0x00000002   Code   RO         1119    .text.HAL_UART_TxCpltCallback  stm32g0xx_hal_uart.o
    0x080020d6   0x080020d6   0x00000002   Code   RO           73    .text.HardFault_Handler  stm32g0xx_it.o
    0x080020d8   0x080020d8   0x00000002   Code   RO           71    .text.NMI_Handler   stm32g0xx_it.o
    0x080020da   0x080020da   0x00000002   Code   RO           77    .text.PendSV_Handler  stm32g0xx_it.o
    0x080020dc   0x080020dc   0x00000098   Code   RO          126    .text.RTC_ExitInitMode  stm32g0xx_hal_rtc.o
    0x08002174   0x08002174   0x00000002   Code   RO           75    .text.SVC_Handler   stm32g0xx_it.o
    0x08002176   0x08002176   0x00000008   Code   RO           79    .text.SysTick_Handler  stm32g0xx_it.o
    0x0800217e   0x0800217e   0x00000002   PAD
    0x08002180   0x08002180   0x000000b4   Code   RO           13    .text.SystemClock_Config  main.o
    0x08002234   0x08002234   0x00000010   Code   RO         1210    .text.SystemInit    system_stm32g0xx.o
    0x08002244   0x08002244   0x00000010   Code   RO           87    .text.TIM16_IRQHandler  stm32g0xx_it.o
    0x08002254   0x08002254   0x0000000c   Code   RO           83    .text.TIM1_BRK_UP_TRG_COM_IRQHandler  stm32g0xx_it.o
    0x08002260   0x08002260   0x00000010   Code   RO           85    .text.TIM1_CC_IRQHandler  stm32g0xx_it.o
    0x08002270   0x08002270   0x000000d2   Code   RO         1033    .text.UART_AdvFeatureConfig  stm32g0xx_hal_uart.o
    0x08002342   0x08002342   0x00000002   PAD
    0x08002344   0x08002344   0x0000012c   Code   RO         1035    .text.UART_CheckIdleState  stm32g0xx_hal_uart.o
    0x08002470   0x08002470   0x00000016   Code   RO         1113    .text.UART_DMAAbortOnError  stm32g0xx_hal_uart.o
    0x08002486   0x08002486   0x00000078   Code   RO         1153    .text.UART_RxISR_16BIT  stm32g0xx_hal_uart.o
    0x080024fe   0x080024fe   0x00000002   PAD
    0x08002500   0x08002500   0x00000154   Code   RO         1149    .text.UART_RxISR_16BIT_FIFOEN  stm32g0xx_hal_uart.o
    0x08002654   0x08002654   0x0000007c   Code   RO         1155    .text.UART_RxISR_8BIT  stm32g0xx_hal_uart.o
    0x080026d0   0x080026d0   0x00000158   Code   RO         1151    .text.UART_RxISR_8BIT_FIFOEN  stm32g0xx_hal_uart.o
    0x08002828   0x08002828   0x000001fc   Code   RO         1031    .text.UART_SetConfig  stm32g0xx_hal_uart.o
    0x08002a24   0x08002a24   0x000000e4   Code   RO         1065    .text.UART_Start_Receive_IT  stm32g0xx_hal_uart.o
    0x08002b08   0x08002b08   0x00000100   Code   RO         1049    .text.UART_WaitOnFlagUntilTimeout  stm32g0xx_hal_uart.o
    0x08002c08   0x08002c08   0x00000010   Code   RO           89    .text.USART2_IRQHandler  stm32g0xx_it.o
    0x08002c18   0x08002c18   0x00000234   Code   RO           35    .text.convert_code  main.o
    0x08002e4c   0x08002e4c   0x000001a8   Code   RO           15    .text.initial_setting  main.o
    0x08002ff4   0x08002ff4   0x0000027c   Code   RO           11    .text.main          main.o
    0x08003270   0x08003270   0x00000220   Code   RO           31    .text.print_segment  main.o
    0x08003490   0x08003490   0x000000fc   Code   RO           43    .text.read_button   main.o
    0x0800358c   0x0800358c   0x00000614   Code   RO           23    .text.reception     main.o
    0x08003ba0   0x08003ba0   0x000000fc   Code   RO           39    .text.set_time      main.o
    0x08003c9c   0x08003c9c   0x00000028   Code   RO         1394    i.__0sprintf$6      mc_p.l(printf6.o)
    0x08003cc4   0x08003cc4   0x0000000e   Code   RO         1554    i.__scatterload_copy  mc_p.l(handlers.o)
    0x08003cd2   0x08003cd2   0x00000002   Code   RO         1555    i.__scatterload_null  mc_p.l(handlers.o)
    0x08003cd4   0x08003cd4   0x0000000e   Code   RO         1556    i.__scatterload_zeroinit  mc_p.l(handlers.o)
    0x08003ce2   0x08003ce2   0x00000002   PAD
    0x08003ce4   0x08003ce4   0x00000304   Code   RO         1399    i._printf_core      mc_p.l(printf6.o)
    0x08003fe8   0x08003fe8   0x00000020   Code   RO         1400    i._printf_post_padding  mc_p.l(printf6.o)
    0x08004008   0x08004008   0x0000002c   Code   RO         1401    i._printf_pre_padding  mc_p.l(printf6.o)
    0x08004034   0x08004034   0x0000000a   Code   RO         1403    i._sputc            mc_p.l(printf6.o)
    0x0800403e   0x0800403e   0x00000002   PAD
    0x08004040   0x08004040   0x00000040   Data   RO         1215    .rodata.AHBPrescTable  system_stm32g0xx.o
    0x08004080   0x08004080   0x00000020   Data   RO         1216    .rodata.APBPrescTable  system_stm32g0xx.o
    0x080040a0   0x080040a0   0x00000018   Data   RO         1161    .rodata.UARTPrescTable  stm32g0xx_hal_uart.o
    0x080040b8   0x080040b8   0x00000010   Data   RO           60    .rodata.cst16       main.o
    0x080040c8   0x080040c8   0x00000010   Data   RO         1162    .rodata.cst16       stm32g0xx_hal_uart.o
    0x080040d8   0x080040d8   0x00000020   Data   RO         1553    Region$$Table       anon$$obj.o


    Execution Region RW_IRAM1 (Exec base: 0x20000000, Load base: 0x080040f8, Size: 0x00000620, Max: 0x00002000, ABSOLUTE)

    Exec Addr    Load Addr    Size         Type   Attr      Idx    E Section Name        Object

    0x20000000   0x080040f8   0x00000016   Data   RW           61    .data..L_MergedGlobals  main.o
    0x20000016   0x0800410e   0x00000002   PAD
    0x20000018   0x08004110   0x00000008   Data   RW          662    .data..L_MergedGlobals  stm32g0xx_hal.o
    0x20000020   0x08004118   0x00000004   Data   RW         1214    .data.SystemCoreClock  system_stm32g0xx.o
    0x20000024   0x0800411c   0x00000004   PAD
    0x20000028        -       0x0000007a   Zero   RW           62    .bss..L_MergedGlobals.15  main.o
    0x200000a2   0x0800411c   0x00000002   PAD
    0x200000a4        -       0x0000004c   Zero   RW           53    .bss.htim1          main.o
    0x200000f0        -       0x0000004c   Zero   RW           55    .bss.htim16         main.o
    0x2000013c        -       0x0000004c   Zero   RW           54    .bss.htim2          main.o
    0x20000188        -       0x00000090   Zero   RW           56    .bss.huart2         main.o
    0x20000218        -       0x00000004   Zero   RW          661    .bss.uwTick         stm32g0xx_hal.o
    0x2000021c   0x0800411c   0x00000004   PAD
    0x20000220        -       0x00000400   Zero   RW            1    STACK               startup_stm32g031xx.o


==============================================================================

Image component sizes


      Code (inc. data)   RO Data    RW Data    ZI Data      Debug   Object Name

      4804        420         16         22        494      25267   main.o
        28          8        192          0       1024        624   startup_stm32g031xx.o
       172         12          0          8          4       7596   stm32g0xx_hal.o
       140         24          0          0          0       6649   stm32g0xx_hal_cortex.o
       232          8          0          0          0       9381   stm32g0xx_hal_dma.o
       510         28          0          0          0       4839   stm32g0xx_hal_gpio.o
       364         28          0          0          0       9684   stm32g0xx_hal_msp.o
        16          0          0          0          0       3831   stm32g0xx_hal_pwr.o
       128         12          0          0          0       6945   stm32g0xx_hal_pwr_ex.o
      1804         84          0          0          0       9241   stm32g0xx_hal_rcc.o
       452         16          0          0          0       6829   stm32g0xx_hal_rcc_ex.o
      1188         16          0          0          0      15046   stm32g0xx_hal_rtc.o
        18          0          0          0          0      16955   stm32g0xx_hal_rtc_ex.o
      1068         36          0          0          0      67241   stm32g0xx_hal_tim.o
       102          0          0          0          0      25388   stm32g0xx_hal_tim_ex.o
      3858        134         40          0          0      29438   stm32g0xx_hal_uart.o
         6          0          0          0          0      11065   stm32g0xx_hal_uart_ex.o
        86         12          0          0          0       2242   stm32g0xx_it.o
        16          4         96          4          0       2223   system_stm32g0xx.o

    ----------------------------------------------------------------------
     15008        842        376         36       1532     260484   Object Totals
         0          0         32          0          0          0   (incl. Generated)
        16          0          0          2         10          0   (incl. Padding)

    ----------------------------------------------------------------------

      Code (inc. data)   RO Data    RW Data    ZI Data      Debug   Library Member Name

         0          0          0          0          0          0   entry.o
         0          0          0          0          0          0   entry10a.o
         0          0          0          0          0          0   entry11a.o
         8          4          0          0          0          0   entry2.o
         4          0          0          0          0          0   entry5.o
         0          0          0          0          0          0   entry7b.o
         0          0          0          0          0          0   entry8b.o
         8          4          0          0          0          0   entry9a.o
        30          0          0          0          0          0   handlers.o
        36          8          0          0          0         68   init.o
        32          0          0          0          0         68   llshl.o
        34          0          0          0          0         68   llushr.o
        36          0          0          0          0        100   memseta.o
       898          8          0          0          0        384   printf6.o
        62          0          0          0          0         72   uidiv_div0.o
        96          0          0          0          0         84   uldiv.o

    ----------------------------------------------------------------------
      1248         24          0          0          0        844   Library Totals
         4          0          0          0          0          0   (incl. Padding)

    ----------------------------------------------------------------------

      Code (inc. data)   RO Data    RW Data    ZI Data      Debug   Library Name

      1244         24          0          0          0        844   mc_p.l

    ----------------------------------------------------------------------
      1248         24          0          0          0        844   Library Totals

    ----------------------------------------------------------------------

==============================================================================


      Code (inc. data)   RO Data    RW Data    ZI Data      Debug   

     16256        866        376         36       1532     260788   Grand Totals
     16256        866        376         36       1532     260788   ELF Image Totals
     16256        866        376         36          0          0   ROM Totals

==============================================================================

    Total RO  Size (Code + RO Data)                16632 (  16.24kB)
    Total RW  Size (RW Data + ZI Data)              1568 (   1.53kB)
    Total ROM Size (Code + RO Data + RW Data)      16668 (  16.28kB)

==============================================================================

