:020000040800F2
:10000000B0050020D50000089715000895150008D8
:1000100000000000000000000000000000000000E0
:100020000000000000000000000000009B15000818
:100030000000000000000000991500089D15000850
:10004000E7000008E7000008E7000008E7000008F4
:10005000E7000008E7000008E7000008E7000008E4
:1000600000000000E7000008E7000008E7000008C3
:10007000E7000008E7000008E7000008E7000008C4
:10008000E7000008E7000008E7000008E7000008B4
:100090000000000049160008E7000008E70000081B
:1000A000E7000008E7000008E7000008E700000894
:1000B000E7000008E7000008000000000000000062
:1000C0000348854600F0C0F800480047B91F000803
:1000D000B00500200448804704480047FEE7FEE7DB
:1000E000FEE7FEE7FEE7FEE739160008C10000085C
:1000F000F0B51FB40646002082B0054640240191A9
:1001000000901BE0019922460F46304600F08AF825
:10011000049A059B801A994110D31046194622462D
:1001200000F070F8361A8F41019722460120002115
:10013000009F00F067F838184D4100902046641E7B
:100140000028DFDC019B00982946324607B0F0BD4D
:10015000D2B201E00270401C491EFBD2704700225F
:10016000F6E710B513460A4604461946FFF7F0FFB6
:10017000204610BD70B50446002903D0002020227F
:10018000012310E0002801D00020C043C046C04633
:100190000DE02546D5408D4205D30D469540641BA4
:1001A0001D46954040191546521E002DF1DC214692
:1001B00070BD000070B5002504462E46002911D000
:1001C000002C01DA01254442002901DA01264942C6
:1001D0002046FFF7CFFFB54200D04042002D00D0AF
:1001E000494270BD002C02DA0121C90702E0002C4F
:1001F00000DD03490846C046C046214670BD0000E8
:10020000FFFFFF7F10B5202A04DB0146203A914012
:10021000002010BD914020239C1A0346E34019435F
:10022000904010BD10B5202A04DB0846203AD0408B
:10023000002110BD0B46D340D0402024A21A91408B
:100240000843194610BD0000064C0125064E05E086
:10025000E36807CC2B430C3C98471034B442F7D3E7
:10026000FFF732FF382B0008582B0008B0B50446C2
:1002700000F0FCF80546601C02D09E480078041986
:1002800000F0F4F8401BA042FAD3B0BDF0B58BB03B
:1002900007466548874205D0052000900D68002D6F
:1002A00006D1BEE0032000900D68002D00D1B8E01B
:1002B0000123002006460193044608900990069108
:1002C0000A9712E03243059E584842600D6828465E
:1002D000D840089A121D089208365B1CA41C099A83
:1002E000521C0992002800D19BE05A1E01980792E7
:1002F000904005400495E9D005964E68122E029470
:1003000061D80125B5404B4A15425CD00325A54074
:10031000BA68AA430699CF68A74017430A998F6025
:10032000320907998A400A994F68874317430A9808
:1003300047600A9F0699E843099A5400FA68024008
:100340008D680394A5401543FD6010223243122AA4
:1003500012D11C21089A11400F228A40079DED08F6
:10036000AD007D192F6A9743069A12698A403A4375
:100370000A9F06992A624E683A6802400325304671
:100380002840039CA04010433860F000059E029C6A
:100390009CD5182030400F2282403E46079FAF4335
:1003A0003546224EF7193E6E9643603705221207F6
:1003B00095420ED0204A954209D0204A9542009D90
:1003C00008D1022506E00320A040C043B6E701257E
:1003D00000E00025854035433D60154805684868C4
:1003E000C20302D5049E354301E0049EB5430A9F33
:1003F0000F4A15605568820301D5354300E0B543C7
:100400000B4A5560094A1568C20201D5354300E020
:10041000B543064A15605268800200D552E7B243E0
:1004200051E70BB0F0BDC046000C00500018024070
:10043000801802400600060000040050000800502A
:1004400000690840411E8841704742690B4693434A
:100450000A401104C91881617047002A02D018228D
:10046000815070472822815070470000054800687D
:100470007047C0461F48007802490A681018086093
:100480007047C046AC010020B0B5012420020849E5
:100490000A6802430A600025284600F00BF800288D
:1004A00001D02046B0BD00F027F82C462046B0BD54
:1004B0000020024070B50F4E31780124002916D07B
:1004C00005467D20C000FFF755FE014649480068FB
:1004D000FFF750FE00F0FAFC032D08D8002806D1E3
:1004E0000024E0432946224600F028F875602046A3
:1004F00070BDC0465800002082B009484168012202
:10050000114341604168114001910199110702684E
:100510000A430260006808400090009802B07047EB
:100520003C100240002805D41F21084001218140D1
:10053000014801607047C04600E100E0002805D492
:100540000322034693430C4A9A1806E00F22024006
:10055000083A03239A43074BD2188007C00E89013B
:10056000C9B28140FF23834010689843084310605C
:100570007047C0461CED00E000E400E0F0B581B03B
:10058000032569021A4E3246143A13688B4303431B
:100590001360012461020022884226D115480168B7
:1005A0003068400521D50092A70206204843124931
:1005B000FFF7E0FD201A022816D0316839420FD02B
:1005C000012811D0316839420AD000280CD0316896
:1005D000394205D0001D032806D031683942EAD1DE
:1005E000009A104601B0F0BD2A46104601B0F0BD99
:1005F000147000406000002040420F00F0B587B04A
:10060000817889076A4F01D400254FE005900123C6
:1006100019073A46183A10680840049006D1106845
:1006200008431060106808400690069802920391F3
:1006300001931E025F4C206830432060FFF716FFD5
:100640000546206830420AD1FFF710FF401B022800
:10065000F7D9032505980499002922D026E003251F
:100660002902B868084011D00599496A88420BD020
:10067000B86801990904BA680A43BA60BA688A433B
:10068000BA604D490840B860C0077ED1BA684A4890
:1006900002400598416A1143B96000250499002978
:1006A00004D1029B1968039A914319600668F10707
:1006B0000BD1F10611D4B10518D471051FD4B106C0
:1006C00026D4012172042DD43BE0396803229143E2
:1006D00042680A433A60F106EDD5032189023A687F
:1006E0008A43816811433960B105E6D50321890445
:1006F0003A688A434169114339607105DFD50321A6
:1007000009053A688A43816911433960B106D8D531
:10071000032109033A688A43C16811433960012102
:1007200072040ED53A68254B1A40C46922433A60D8
:100730005A1C944205D10A043B46483B1C681443AA
:100740001C60B2020DD58A053B689343046A2343BB
:100750003B60944205D10A063B46483B1C68144363
:100760001C6032050ED58C03032292033B68934331
:10077000026913433B60A24204D10804483F396830
:1007800001433960284607B0F0BDFFF76FFE06460B
:10079000864CB868800700D578E7FFF767FE801BB6
:1007A000A042F6D905980499002900D179E77DE7A0
:1007B0005410024000700040FFFCFFFFFFFFFF3FAE
:1007C000F0B583B00D46012100281BD001910290A5
:1007D0007548006807242040A84216D2724908686C
:1007E000A04328430860714EFFF740FE07466E485D
:1007F00000682040A84208D0FFF738FEC01BB04276
:10080000F5D90321084603B0F0BD029E3068810788
:10081000914B0CD5410703D521031A680A431A608E
:100820000F2109021A688A43B16811431960C00791
:100830001BD15D4800682040A8422CD95A4908685D
:10084000A04328430860594FFFF710FE064656485C
:1008500000682040A8421ED0FFF708FE801BB84267
:10086000F5D90321084603B0F0BD0298406803287B
:100870005DD8810001A251588F46C0468D080008FE
:10088000330900083D0900084709000819460839DE
:100890000968490559E0029A107840076E4B05D562
:1008A000200319688143D0680843186018688006DF
:1008B000400F22D01A6838210A406848082A23D0FD
:1008C0001A680A40102A5ED1596803220A40032A96
:1008D00000D0634859684906490F491CFFF74AFC94
:1008E0005D4949684904490E48435B494968490FD5
:1008F000491CFFF73FFC584B06E0184608380068D3
:100900008004410F5648C840196889093C220A40B2
:10091000274989581F220A40D0402E49086025489F
:100920000068FFF7C7FD0146084603B0F0BD596DEA
:100930000AE0194608390968890306E019460839AA
:100940000968890101E0996D8907019900D459E787
:100950001968A14301431960144FFFF787FD06464C
:100960003D4800683821014002984068C00081423B
:1009700000D15EE7FFF77AFD801BB842F0D9032172
:10098000084603B0F0BD18680840202802D10120B5
:10099000C003B9E718680840182801D00020B3E761
:1009A0007D200002B0E7C04600200240881300000E
:1009B000B02A00085C000020064800682649096843
:1009C000890A1C220A40044989581F220A40D04043
:1009D0007047C04660000020F02A000810B51E4C89
:1009E00020688006400F06D0226838210A401B4844
:1009F000082A07D110BD083C20688004410F184820
:100A0000C84010BD22680A40102A15D1616803222F
:100A10000A40032A00D0124861684906490F491C60
:100A2000FFF7A8FB61684904490E48436168490F14
:100A3000491CFFF79FFB10BD20680840202802D109
:100A40000120C00310BD20680840182801D00020F4
:100A500010BD7D20000210BD0810024000127A0077
:100A60000024F400F0B587B00125002800D105E28C
:100A7000049505900078C007F44F2AD0B868F9684B
:100A800003252A468A433821014010204840821815
:100A900050425041082914D0002812D105984268CC
:100AA000012001048A4208D005231B049A4200D089
:100AB00006E182043B6813433B603A680A433A60AC
:100AC00008E13868800304D505984068002800D103
:100AD00057E105980078800716D40598007800073C
:100AE00045D4059A107840074ED4D069002800D12B
:100AF00043E1B96838220A40102A00D0B6E0012844
:100B000000D012E1049DB9E1B968382008401021F5
:100B10004140FA680326324002235340CA1851422A
:100B200051410125AC0200283AD0002938D138685B
:100B3000059AD168002900D1DAE00721C90288436B
:100B40001169014339602802396801433960FFF7B0
:100B50008DFC05463868204200D0DCE0FFF786FCBB
:100B6000401B0228F6D93546284607B0F0BDB868C4
:100B70003821014018293BD1386E8007B1D505983E
:100B800080690028ADD1FCE0B868382101402029F7
:100B900045D1F86D8007A8D590680028A5D1F0E070
:100BA00039682142059B03D0D968002900D165E14D
:100BB0007F2109027A688A435969090211437960E1
:100BC00000280DD10720C002396881431869084305
:100BD000386038688004400FB549C140B5480160AD
:100BE000B5480068FFF766FC002800D046E174E7CE
:100BF000386E05998969002900D1DBE0012108439D
:100C00003866FFF733FC0646386E800700D568E784
:100C1000FFF72CFC801B03250228F5D92EE10120CB
:100C200003900107F86B0840029006D1F86B084367
:100C3000F863F86B08400690069801919F48006899
:100C4000C0052CD4039804029C490868204308601E
:100C5000FFF70CFC06469948006820421FD1FFF7B9
:100C600005FC801B03250228F5D907E101221306A4
:100C7000396899433960022800D086E003930492D2
:100C80005406FFF7F3FB06463868204200D1B0E077
:100C9000FFF7ECFB801B03250228F5D9EEE0059851
:100CA0008068874C012806D0052800D0D0E0F86D78
:100CB00004210143F965F86D03990843F865D1E013
:100CC0003B688B433B6081043B688B433B60002A5D
:100CD00000D180E04404FFF7C9FB06463868204293
:100CE00000D0F6E6FFF7C2FB801B6428F6D9C5E00A
:100CF000290288433860FFF7B9FB0546386820426F
:100D000000D1EAE6FFF7B2FB401B0228F6D93546D0
:100D1000284607B0F0BD7F2000027968814305981E
:100D20004069000208437860D7E6F8680321014073
:100D3000059B1A6A914224D1702101405A6A91425E
:100D40001FD17F21090201409A6A1202914218D1F3
:100D50001F2149040140DA6A914212D107214A0653
:100D600002401C461B6B9A42049D00D086E0490756
:100D70000840616B884200D080E00025284607B01B
:100D8000F0BD049D284607B0F0BDF8680325A843D0
:100D9000F860F8684B490140F9605606FFF766FBBA
:100DA000044638683042E8D0FFF760FB001B022899
:100DB000F7D963E0012188433866FFF757FB064601
:100DC000386E800700D48CE6FFF750FB801B0325AC
:100DD0000228F5D952E04404FFF748FB064638687C
:100DE000204200D175E6FFF741FB801B6428F6D94D
:100DF00044E0F868344901400598026A456A836A0C
:100E0000C66A0196066B0296406B0A432A43190292
:100E10001143019A1143029A11430143F960386862
:100E200003990843386004980007F9680143F960A2
:100E3000FFF71CFB0646386820429ED1FFF716FBE1
:100E4000801B03250228F6D918E0C0460010024096
:100E5000F96D039A9143F965F96D04229143F9659F
:100E600000280ED0FFF702FB0646F86D800715D468
:100E7000FFF7FCFA801B0325A042F6D9284607B0ED
:100E8000F0BDFFF7F3FA0646F86D800706D5FFF7C9
:100E9000EDFA801B0325A042F6D9EFE7029800285F
:100EA000059A00D021E6F86B01998843F8631CE6A7
:100EB0000024F400600000205C000020007000406E
:100EC00088130000FFFFFEEE8C80C111401E010E52
:100ED00001D0012070470749074A5060074803685E
:100EE0000B400321890759180160002090600721F9
:100EF00011607047FFFFFF0010E000E020ED00E010
:100F0000704770477047000070B53C22825C012A30
:100F100001D1022070BD02463C32022353700068AA
:100F200045688368844CA04201D02E4604E00F2619
:100F30003605B5434E682E437025AE430D683543E4
:100F400045600125AE07B04204D0A04202D07B4CE0
:100F5000A04204D18024A343896819438160002002
:100F60001070557070BDC04670B5002828D004467A
:100F700005463C356878002804D1002028702046BA
:100F800000F05EF80220687021680E680120830777
:100F9000994205D0684A914202D0684A914211D1E3
:100FA00070229643A2683243224EB1420EDC99422F
:100FB00015D0624B994212D0204B99420FD036E0A7
:100FC000012070BD32461B4EB142F0DD5A4B9942B2
:100FD00005D0194B994202D02E4B994227D10323B9
:100FE0001B029A432369134380229343A2691A4345
:100FF0000A60E268CA6262688A624F4A914205D01A
:101000000D4A914202D0234A914201D162690A639A
:1010100048612873A870E87028716871A871E87138
:1010200028726872A872E8726870002070BD13465A
:10103000DAE7C046FF2B0140004801400020004095
:1010400010B582B00068134988420ED03A498842F0
:101050001ED10120C00210490A6802430A600968D3
:1010600001400191019802B010BD012040040A49DD
:101070000A6802430A60096801400091009815243B
:10108000002120460A46FFF759FA2046FFF74AFAA0
:1010900002B010BD004401404010024010B53D2197
:1010A000415C012918D101463D3102220A700168D4
:1010B00001229007814205D01F48814202D01F487B
:1010C00081420BD188681E4B03400020062B02D0C2
:1010D0001404A34202D110BD012010BD08681043C2
:1010E0000860002010BDC04610B53D21415C0129BB
:1010F0001BD101463D3102220A700168C8680122F5
:101100001043C8609007814205D00B48814202D04D
:101110000A4881420BD18868094B03400020062B06
:1011200002D01404A34202D110BD012010BD0868F2
:1011300010430860002010BD002C01400004004056
:101140000700010070B53C22825C012A01D1022017
:1011500070BD02463C320223537000688368474CDE
:101160001C4084600B683F2B19DD5F2B1EDD602B5C
:1011700041D001246503AB4255D0702B79D1FF23B8
:101180001B0284689C434B688D68C9681D43090233
:1011900029432143816083687721194368E01F2B2D
:1011A0001EDC002B20D0102B1ED062E0402B4AD03A
:1011B000502B5ED1036A046A0125AC430462846942
:1011C000F025AC43CD682D01254385610A24A34356
:1011D000496819430162836829491940573147E03A
:1011E000202B01D0302B44D18168254C0C40234367
:1011F000072119433CE0036A1024A34303620F2331
:101200001B0384699C43CB681B032343046A8361EB
:10121000A0239C434968090121430162836818495E
:101220001940673124E0FF231B0285689D434B680A
:101230008E68C9681E430902314329438160A303B4
:101240008168194314E0036A046A0125AC4304620F
:101250008469F025AC43CD682D01254385610A24BE
:10126000A34349681943016283680549194047311E
:101270008160002010700121517070BD8800CEFF88
:1012800088FFCFFF70470000B0B5044600680169D1
:101290008907554D17D5C168890714D52946FE31F0
:1012A0000161012121778069800703D02046FFF783
:1012B000E9FF05E0204600F099F8204600F097F895
:1012C0000020207720680169490718D5C1684907BF
:1012D00015D52946FC3101610221217780698005FD
:1012E000800F03D02046FFF7CDFF05E0204600F039
:1012F0007DF8204600F07BF8002020772068016907
:10130000090717D5C168090714D52946F8310161C5
:1013100004212177C069800703D02046FFF7B2FF80
:1013200005E0204600F062F8204600F060F800205A
:10133000207720680169C90618D5C168C90615D586
:101340002946F031016108212177C0698005800FAD
:1013500003D02046FFF796FF05E0204600F046F850
:10136000204600F044F80020207720680169C90772
:1013700009D0C168C90706D02946FF31016120465E
:1013800000F036F820680169090609D5C168090628
:1013900006D52946803101612046FFF7B2FD20685D
:1013A0000169C90507D5C168090604D5056120464C
:1013B000FFF7A6FD20680169490609D5C1684906FD
:1013C00006D52946C0310161204600F07FF820682B
:1013D0000169890607D5C168890604D5E03505612C
:1013E0002046FFF78FFDB0BDFFFEFFFF704770473F
:1013F00080B51F48016800201E4A91420DDD1E4A3B
:10140000914215DD1D4A914222D01D4A914221D0C0
:101410001C4A914225D1244823E01D4A91420FDC09
:101420001E4A914218D01E4A91421AD1214818E012
:10143000154A914212D0154A914212D1214810E02A
:10144000144A91420CD0144A91420AD1174808E03C
:10145000174806E0184804E0124802E0184800E087
:10146000164800F0F3FE18484021FEF7EEFF80BD5D
:10147000680000207E8076895EA076895FA07689EC
:101480003FC076891FE076897F8076896F90768964
:10149000BE407689BF4076899F607689EF10768955
:1014A000DF207689385B0100D12F01006A0401003A
:1014B00003D900009CAD000035820000CE5600002C
:1014C000672B00009F860100000800507047B0B5F0
:1014D000002830D00446054680356868002804D1CD
:1014E00000202870204600F029F824206860206839
:1014F00001680125A9430160204600F0ADF90128EB
:1015000017D0A06A002802D0204600F0A5F80920D4
:10151000C00221684A6882434A6088682A22904350
:1015200088600868012202430A60204600F0FEF845
:1015300005462846B0BD0120B0BD000080B586B08C
:1015400000681249884201D006B080BD01204104E4
:101550000F4A93680B43936093680B400193019982
:10156000116801431160116801400091059000214C
:1015700004910390022002900C20019005200007A6
:10158000009901A9FEF782FE06B080BD004400402C
:1015900034100240FEE7FEE77047704780B5FEF763
:1015A00069FF80BD70B59CB0002514951395129508
:1015B000119510950F9568462821FEF7D0FD01265C
:1015C0007002FEF7DBFF70071B9070061A90700424
:1015D000199008201890179502241694159440200D
:1015E00013901295300211900E940EA8FFF73AFA5C
:1015F000002803D0EFF3108072B6FEE70D950C952E
:1016000007200A900B940AA82146FFF7D9F8002872
:1016100003D0EFF3108072B6FEE7089570050090D6
:101620006846FEF7EBFF002803D0EFF3108072B698
:10163000FEE71CB070BD00000120C0060149086033
:101640007047C04608ED00E080B50248FFF71CFE79
:1016500080BDC046D0000020B0B5816ACA070CD159
:101660008A0714D44A071CD40A0724D4CA062CD4E7
:101670008A0634D44A063CD44CE001225204036862
:101680005C689443C26A22435A608A07EAD5012201
:10169000120403685C689443026B22435A604A0751
:1016A000E2D50122920403685C689443426B2243B2
:1016B0005A600A07DAD50122D20303685C689443B2
:1016C000826B22435A60CA06D2D5012212030368F4
:1016D0009C689443C26B22439A608A06CAD5012251
:1016E000520303689C689443026C22439A604A0642
:1016F00010D501221305026854689C43456C2C43A5
:1017000054609D4206D103235B0554689C43836C5F
:1017100023435360090607D50121C90402685368B1
:101720008B43C06C18435060B0BD0000F0B585B06D
:1017300004468C200026265020468C3002902746F6
:101740008037FEF793FE0546206801680907049676
:10175000039727D5C169890224D401204705019048
:10176000C60202E0C16939421CD1FEF77FFE421B6E
:1017700020680168374B9A4249D84907F2D5C169B8
:101780003142EFD006620D21490102688A430260AE
:101790008168019A914381602020039A5060906093
:1017A00002994FE00168490727D5C069400224D457
:1017B000012087050190C60202E0C06938421CD1B1
:1017C000FEF754FE421B20680168224B9A422CD837
:1017D0004907F2D5C1693142EFD006620D214901B6
:1017E00002688A4302608168019A914381602020E7
:1017F000039A50609060029924E02020039A506080
:1018000090600499E1660846117005B0F0BD0D22A4
:101810005201914301608168019A914381602020C7
:10182000039A5060114608310CE00D225201914399
:1018300001608168019A914381602020039A506081
:10184000114608312020086003200499117005B06A
:10185000F0BDC046FFFFFF01F0B581B0044602684D
:1018600011686F480840A16823690B4361691943F7
:10187000E3691943656E0D4305431560032738037B
:1018800051688143E06808435060A169654DAA42F0
:1018900002D0206A084300E008469168624E0E407C
:1018A00006439660D06A0F218843616A0843D0627C
:1018B0005E4882420BD0AA420BD05D48824210D1D2
:1018C0005C4800688007000F5B4E36580AE000262F
:1018D00008E058480068000A0C2606405648865919
:1018E00000E010262046683000905448AA4216D0E6
:1018F0000125EA03934226D1082E00D987E0C0468D
:101900007E4436797600B7440482598252828282BC
:101910005800FFF751F800284DD0616A4EE00125CC
:10192000082E00D973E0C0467E4436797600B7446D
:10193000046E246E1C6E6E6E2200FFF73DF80028C8
:1019400017D0616A19E0082E61D8C0467E44367906
:101950007600B744045C4C5C455C5C5C4B00FFF774
:101960002BF8002840D0616A41E0FFF737F80028E3
:10197000E7D100254BE00120C0034900304A515A0D
:10198000FEF7F8FB62685743B84240D31103884220
:101990003DD8010E56080002002380195941FEF778
:1019A000A7FB29494118294A914230D22CE0FFF780
:1019B00015F80028B1D1002529E010464900204A39
:1019C000515AFEF7D7FB400061684A081018FEF72D
:1019D000D1FB1C4901401AD00007400F084313E017
:1019E000FEF7FCFF0028BED1002510E0104649009C
:1019F000134A515AFEF7BEFB61684A081018FEF7F9
:101A0000B9FB80B2102802D32168C86000251048B5
:101A100000990860002020676067284601B0F0BD8B
:101A2000F369FFCF00800040FFF4FF110044004045
:101A30000038014054100240282B00080024F40014
:101A4000102B0008F0FF000000FDFFFF00FD0F005D
:101A500001000100F0B585B0C820FEF707FC0126A3
:101A60007702FD4C2046394632460496FEF7F5FCD7
:101A7000FA49402008610025294600F0EDFC204687
:101A800039462A46FEF7E9FCF548046A2027F24861
:101A900039463246FEF7E1FCC0263443EF48446144
:101AA0002046294600F0D8FCEB4839462A46FEF786
:101AB000D4FCEB48446AE8483946049AFEF7CDFC6A
:101AC0003443E64844612046294600F0C5FCE2481C
:101AD00039462A46FEF7C1FCE148846ADE483946A9
:101AE000049AFEF7BAFC3443DC4844612046294698
:101AF00000F0B2FCD84839462A46FEF7AEFCD8487A
:101B0000C46AD5483946049AFEF7A7FC3443D34843
:101B100044612046294600F09FFCCF4839462A46BA
:101B2000FEF79BFCCE48046BCB483946049AFEF77F
:101B300094FC03963443C94844612046294600F08A
:101B40008BFCC54839462A46FEF787FCC448446BDF
:101B5000C1483946049AFEF780FC3443BF484461CB
:101B60002046294600F078FCBB4E304639462A46CE
:101B7000FEF773FCBA48846B30463946049E324601
:101B8000FEF76BFC03980443B448446120462946A1
:101B900000F062FCB04839462A46FEF75EFCB048C9
:101BA000C46BAD4839463246FEF757FC039E3443BA
:101BB000AA4844612046294600F04EFCFB483946BD
:101BC0002A46FEF74AFCFB48046CF8483946049A5A
:101BD000FEF743FC3443F64844612046294600F0B2
:101BE0003BFCF24E304639462A46FEF736FCF148B9
:101BF000446C30463946049E3246FEF72EFC03986C
:101C00000443EB4844612046294600F025FCE748A0
:101C100039462A46FEF721FCE648846CE3483946FB
:101C20003246FEF71AFC039E3443E14844612046E5
:101C3000294600F011FCDD4839462A46FEF70DFC26
:101C4000DC48C46CD9483946049AFEF706FC344394
:101C5000D74844612046294600F0FEFBD34E30466B
:101C600039462A46FEF7F9FBD248046D304639461C
:101C7000049E3246FEF7F1FB03980443CC484461CE
:101C80002046294600F0E8FBC84839462A46FEF7B8
:101C9000E4FBC848446DC54839463246FEF7DDFBD3
:101CA00003980443C24844612046294600F0D4FB0F
:101CB000BE4C204639462A46FEF7CFFB310220466D
:101CC00027460C4601913246FEF7C7FB03200290DF
:101CD000B749C860294600F0BFFB384621462A466E
:101CE000FEF7BBFBB34804681027B04839463246BC
:101CF000FEF7B3FB802003900443AD488461204687
:101D0000294600F0A9FBA94839462A46FEF7A5FB5B
:101D1000A8484468A54839463246FEF79EFB039E14
:101D20003443A34884612046294600F095FB9F4830
:101D300039462A46FEF791FB9E4884689B483946FF
:101D4000049AFEF78AFB3443994884612046294669
:101D500000F082FB954E304639462A46FEF77DFB61
:101D60009448C46830463946049AFEF776FB039ED1
:101D700034438F4884612046294600F06DFB8B4830
:101D800039462A46FEF769FB8A480469874839467E
:101D9000049AFEF762FB3443854884612046294655
:101DA00000F05AFB814E304639462A46FEF755FB75
:101DB0008048446930463946049AFEF74EFB039E3C
:101DC00034437B4884612046294600F045FB774830
:101DD00039462A46FEF741FB7648846973483946FE
:101DE000049AFEF73AFB3443714884612046294641
:101DF00000F032FB6D4E304639462A46FEF72DFB89
:101E00006C48C46930463946049E3246FEF725FBCD
:101E100003980443664884612046294600F01CFB71
:101E2000FE4C204639462A46FEF717FB2046019C09
:101E300021463246FEF711FB0298FE49C86029464A
:101E400000F00AFBF54E304621462A46FEF705FB18
:101E500058480468304605E000040050680000203F
:101E6000000000203946049E3246FEF7F6FA88202C
:101E700003900443EF4884612046294600F0ECFAC1
:101E8000E64839462A46FEF7E8FA4A484468E348F5
:101E900039463246FEF7E1FA039E3443E548846151
:101EA0002046294600F0D8FADC4839462A46FEF793
:101EB000D4FA40488468D9483946049AFEF7CDFAE6
:101EC0003443DC4884612046294600F0C5FAD34EED
:101ED000304639462A46FEF7C0FA3648C4683046CE
:101EE0003946049E3246FEF7B8FA03980443D148B7
:101EF00084612046294600F0AFFAC84839462A4690
:101F0000FEF7ABFA2B480469C44839463246FEF75F
:101F1000A4FA039E3443C74884612046294600F052
:101F20009BFABE4839462A46FEF797FA214844698B
:101F3000BA483946049AFEF790FA3443BD488461A2
:101F40002046294600F088FAB44E304639462A46E3
:101F5000FEF783FA1748846930463946049E3246B4
:101F6000FEF77BFA03980443B24884612046294671
:101F700000F072FAA94839462A46FEF76EFA0D4873
:101F8000C469A64839463246FEF767FA0398044307
:101F9000A84884612046294600F05EFA9F483946E9
:101FA0002A46FEF75AFA05B0F0BDC04600040050BC
:101FB00068000020000000208EB0FEF765FAFFF7F1
:101FC000F1FA00270A979448016802221143016040
:101FD000016811400B910B9901680422039211438F
:101FE0000160016811400B910B9901682022049255
:101FF00011430160016811400B910B9901680124A4
:1020000021430160006820400B900B9833200601AB
:10201000824831463A46FEF720FA0520050713218B
:10202000019128463A46FEF718FA7D484021029170
:102030003A46FEF712FA099708940794069606AEF8
:10204000FE483146FEF722F9089776480790039834
:10205000069075483146FEF719F9099708940794D8
:102060000198069028463146FEF710F90897079721
:102070000498069028463146FEF708F90997089714
:1020800007940298069066483146FEF7FFF86748C5
:102090000C2104942207E1235B02654C04603C465A
:1020A00043608260C760076141618761C761076201
:1020B00047628762FFF70BFA002803D0EFF3108026
:1020C00072B6FEE7DE4F5C483F215C4AFA61396236
:1020D0007C62B862FC623C637C6309940894079458
:1020E0003E461C363046FEF73FFF002803D0EFF394
:1020F000108072B6FEE704980003069006A93046E9
:10210000FFF720F8002803D0EFF3108072B6FEE747
:102110000D940C940B940BA93046FEF7F5FE0028A5
:1021200003D0EFF3108072B6FEE745486321454ABD
:10213000454B036042608460C16004614461846116
:10214000FEF712FF002803D0EFF3108072B6FEE70F
:1021500010210396012628463246FEF77EF9022119
:10216000284604963246FEF778F90398FEF796FF64
:102170003348FEF7B9FFFFF76DFC059404E03C60BF
:10218000FA20FEF773F8059CFEF770F9B86020217D
:102190002846FEF755F90028F9D120212846FEF7F8
:1021A0004FF90028F9D020212846FEF749F90028E8
:1021B000F9D1264603E08443761C202EDFD0059813
:1021C000786020212846FEF73BF90028F9D011E07D
:1021D000F869002141627968491C7960416A632984
:1021E00008D8416A632905D8416A632902D8416A3F
:1021F0006429F3D320212846FEF722F90028E7D1ED
:102200000498C007F04079680C29D4D90443761C9F
:10221000202ED4D1B3E7C046341002400004005051
:102220000008005000001110001400501C01002094
:102230000044004068000020FEFF0000002C014028
:10224000D0000020FF18000000440140F0B587B026
:10225000054601225602794F38463146FEF7FDF811
:102260007749402008610024214600F0F5F83846FF
:1022700031462246FEF7F1F8724C28462146FDF71A
:1022800099FF08B2704A4243100C401881B2C90B42
:1022900000B240124018049064212846FDF78AFFDE
:1022A00048B2672646437D20C1002846FDF782FFDD
:1022B00008B266494143C80F0390C81401906449AD
:1022C0002846FDF777FF08462146FDF773FF0446D1
:1022D0000A212846FDF76EFF0591601E3F2708285A
:1022E000069702D880005B490F58F00F0290B61293
:1022F0000398019908180390202501224F4C20468D
:102300002946FEF7AAF8C0204D494861394600F039
:10231000A3F8002220462946FEF79FF80498401EA5
:102320000828069F03D880B280004A490F580298B7
:10233000341820250122414E30462946FEF78DF8FB
:10234000C2203F494861394600F086F800223046F5
:102350002946FEF782F80398401E0828069F03D8F6
:1023600080B280003B490F58202501223046294683
:10237000FEF773F8C42032494861394600F06CF822
:10238000002230462946FEF768F8601E0828069DA0
:1023900003D8C0B280002F490D58202401273046B1
:1023A00021463A46FEF759F8C62025494861294694
:1023B00000F052F8002230462146FEF74EF805980C
:1023C000401E082803D8800022490858069020247F
:1023D000304621463A46FEF740F8C8201849486181
:1023E000069900F039F80025304621462A46FEF7C6
:1023F00034F83C02304621463A46FEF72EF80320D8
:102400000F49C860294600F027F8304621462A4681
:10241000FEF723F81024304621463A46FEF71DF811
:102420008F2007498861294600F016F8304621467A
:102430002A46FEF712F807B0F0BDC046000400506F
:1024400068000020102700001383FFFF7B140000AA
:10245000A08601008C2A0008F0B581B000910746E3
:10246000052005071021002428462246FDF7F5FF28
:10247000014EF069446201E068000020416A0029D1
:1024800008D1416A002905D1416A002902D1416A77
:102490000029F3D0022128462246FDF7DEFF012164
:1024A0003A460A402846FDF7D8FFF0694462416A7F
:1024B000002908D1416A002905D1416A002902D1C9
:1024C000416A0029F3D0022101222846FDF7C5FF09
:1024D000F0694462416A002908D1416A002905D1A6
:1024E000416A002902D1416A0029F3D0022128461D
:1024F0002246FDF7B2FFB807C20F01212846FDF7BB
:10250000ACFFF0694462416A002908D1416A0029A0
:1025100005D1416A002902D1416A0029F3D0022184
:1025200001222846FDF799FFF0694462416A0029BB
:1025300008D1416A002905D1416A002902D1416AC6
:102540000029F3D0022128462246FDF786FF7807AE
:10255000C20F01212846FDF780FFF0694462416AFD
:10256000002908D1416A002905D1416A002902D118
:10257000416A0029F3D0022101222846FDF76DFFB0
:10258000F0694462416A002908D1416A002905D1F5
:10259000416A002902D1416A0029F3D0022128466C
:1025A0002246FDF75AFF3807C20F01212846FDF7E2
:1025B00054FFF0694462416A002908D1416A002948
:1025C00005D1416A002902D1416A0029F3D00221D4
:1025D00001222846FDF741FFF0694462416A002963
:1025E00008D1416A002905D1416A002902D1416A16
:1025F0000029F3D0022128462246FDF72EFFF806D7
:10260000C20F01212846FDF728FFF0694462416AA4
:10261000002908D1416A002905D1416A002902D167
:10262000416A0029F3D0022101222846FDF715FF57
:10263000F0694462416A002908D1416A002905D144
:10264000416A002902D1416A0029F3D002212846BB
:102650002246FDF702FFB806C20F01212846FDF70A
:10266000FCFEF0694462416A002908D1416A0029F0
:1026700005D1416A002902D1416A0029F3D0022123
:1026800001222846FDF7E9FEF0694462416A00290B
:1026900008D1416A002905D1416A002902D1416A65
:1026A0000029F3D0022128462246FDF7D6FE7806FF
:1026B000C20F01212846FDF7D0FEF0694462416A4D
:1026C000002908D1416A002905D1416A002902D1B7
:1026D000416A0029F3D0022101222846FDF7BDFE00
:1026E000F0694462416A002908D1416A002905D194
:1026F000416A002902D1416A0029F3D0022128460B
:102700002246FDF7AAFEF8B2C20901212846FDF7CC
:10271000A4FEF0694462416A002908D1416A002997
:1027200005D1416A002902D1416A0029F3D0022172
:10273000012628463246FDF790FECB48C069446228
:10274000416A002908D1416A002905D1416A00295E
:1027500002D1416A0029F3D0C02F00DA6EE1446251
:10276000416A002908D1416A002905D1416A00293E
:1027700002D1416A0029F3D0022128462246FDF702
:102780006CFE009F3A46324028463146FDF765FE12
:10279000B54EF0694462416A002908D1416A0029B6
:1027A00005D1416A002902D1416A0029F3D00221F2
:1027B00001222846FDF751FEF0694462416A002972
:1027C00008D1416A002905D1416A002902D1416A34
:1027D0000029F3D0022128462246FDF73EFEB80725
:1027E000C20F01212846FDF738FEF0694462416AB4
:1027F000002908D1416A002905D1416A002902D186
:10280000416A0029F3D0022101222846FDF725FE66
:10281000F0694462416A002908D1416A002905D162
:10282000416A002902D1416A0029F3D002212846D9
:102830002246FDF712FE7807C20F01212846FDF758
:102840000CFEF0694462416A002908D1416A0029FE
:1028500005D1416A002902D1416A0029F3D0022141
:1028600001222846FDF7F9FDF0694462416A00291A
:1028700008D1416A002905D1416A002902D1416A83
:102880000029F3D0022128462246FDF7E6FD38074D
:10289000C20F01212846FDF7E0FDF0694462416A5C
:1028A000002908D1416A002905D1416A002902D1D5
:1028B000416A0029F3D0022101222846FDF7CDFD0F
:1028C000F0694462416A002908D1416A002905D1B2
:1028D000416A002902D1416A0029F3D00221284629
:1028E0002246FDF7BAFDF806C20F01212846FDF782
:1028F000B4FDF0694462416A002908D1416A0029A7
:1029000005D1416A002902D1416A0029F3D0022190
:1029100001222846FDF7A1FDF0694462416A0029C1
:1029200008D1416A002905D1416A002902D1416AD2
:102930000029F3D0022128462246FDF78EFDB80675
:10294000C20F01212846FDF788FDF0694462416A03
:10295000002908D1416A002905D1416A002902D124
:10296000416A0029F3D0022101222846FDF775FDB6
:10297000F0694462416A002908D1416A002905D101
:10298000416A002902D1416A0029F3D00221284678
:102990002246FDF762FD7806C20F01212846FDF7A9
:1029A0005CFDF0694462416A002908D1416A00294E
:1029B00005D1416A002902D1416A0029F3D00221E0
:1029C00001222846FDF749FDF0694462416A002969
:1029D00008D1416A002905D1416A002902D1416A22
:1029E0000029F3D0022128462246FDF736FDF8B231
:1029F000C20901212846FDF730FDF0694462416AB1
:102A0000002908D1416A002905D1416A002902D173
:102A1000416A0029F3D0022101222846FDF71DFD5D
:102A2000F0694462416A002908D1416A002905D150
:102A3000416A002902D1416A0029F3D01021012204
:102A40002846FDF70AFD0848C0694462416A00292A
:102A500008D1416A002905D1416A002902D1416AA1
:102A60000029F3D001B0F0BD6800002002E008C8E2
:102A7000121F08C1002AFAD170477047002001E0F8
:102A800001C1121F002AFBD17047000006000000A0
:102A90005B0000004F000000660000006D000000B9
:102AA0007D000000070000007F0000006F000000B4
:102AB0000000000000000000000000000000000016
:102AC0000000000000000000000000000000000006
:102AD00001000000020000000300000004000000EC
:102AE00006000000070000000800000009000000C8
:102AF00000000000000000000000000000000000D6
:102B000001000000020000000300000004000000BB
:102B1000010002000400060008000A000C0010007A
:102B200020004000800000010000000004000000C0
:102B30000200000008000000582B000800000020E0
:102B4000680000006C2A0008C02B00086800002004
:102B5000480500007C2A0008000000000100000079
:102B60000200000003000000040000000500000057
:102B70000600000007000000000000000200000046
:102B80000400000006000000080000000A00000029
:102B90000C00000001000000030000000500000020
:102BA00007000000090000000B0000000D000000FD
:102BB00001000000040000000024F40000000000F8
:04000005080000C12E
:00000001FF
